{"contracts/Tracking.sol":{"Tracking":{"abi":[{"anonymous":false,"inputs":[{"indexed":false,"internalType":"string","name":"trackingId","type":"string"},{"indexed":false,"internalType":"string","name":"date","type":"string"},{"indexed":false,"internalType":"string","name":"status","type":"string"},{"indexed":true,"internalType":"address","name":"owner","type":"address"}],"name":"ShipmentAdded","type":"event"},{"anonymous":false,"inputs":[{"indexed":false,"internalType":"string","name":"trackingId","type":"string"},{"indexed":false,"internalType":"string","name":"newStatus","type":"string"}],"name":"ShipmentStatusUpdated","type":"event"},{"inputs":[{"internalType":"string","name":"_trackingId","type":"string"},{"internalType":"string","name":"_date","type":"string"},{"internalType":"string","name":"_status","type":"string"}],"name":"addShipment","outputs":[],"stateMutability":"nonpayable","type":"function"},{"inputs":[],"name":"getAllShipments","outputs":[{"components":[{"internalType":"string","name":"trackingId","type":"string"},{"internalType":"string","name":"date","type":"string"},{"internalType":"string","name":"status","type":"string"},{"internalType":"address","name":"owner","type":"address"}],"internalType":"struct Tracking.Shipment[]","name":"","type":"tuple[]"}],"stateMutability":"view","type":"function"},{"inputs":[{"internalType":"string","name":"_trackingId","type":"string"}],"name":"getShipment","outputs":[{"components":[{"internalType":"string","name":"trackingId","type":"string"},{"internalType":"string","name":"date","type":"string"},{"internalType":"string","name":"status","type":"string"},{"internalType":"address","name":"owner","type":"address"}],"internalType":"struct Tracking.Shipment","name":"","type":"tuple"}],"stateMutability":"view","type":"function"},{"inputs":[{"internalType":"string","name":"_trackingId","type":"string"},{"internalType":"string","name":"_newStatus","type":"string"}],"name":"updateShipmentStatus","outputs":[],"stateMutability":"nonpayable","type":"function"}],"evm":{"bytecode":{"linkReferences":{},"object":"6080604052348015600f57600080fd5b506116438061001f6000396000f3fe608060405234801561001057600080fd5b506004361061004c5760003560e01c80632c60117214610051578063494dad6c1461006d5780637fee6aa91461008b578063da34f3d5146100a7575b600080fd5b61006b60048036038101906100669190610b7c565b6100d7565b005b6100756102b3565b6040516100829190610e16565b60405180910390f35b6100a560048036038101906100a09190610e38565b6105a7565b005b6100c160048036038101906100bc9190610eb0565b610731565b6040516100ce9190610f6a565b60405180910390f35b600080846040516100e89190610fc8565b908152602001604051809103902060000180546101049061100e565b905014610146576040517f08c379a000000000000000000000000000000000000000000000000000000000815260040161013d9061109c565b60405180910390fd5b60405180608001604052808481526020018381526020018281526020013373ffffffffffffffffffffffffffffffffffffffff1681525060008460405161018d9190610fc8565b908152602001604051809103902060008201518160000190816101b09190611272565b5060208201518160010190816101c69190611272565b5060408201518160020190816101dc9190611272565b5060608201518160030160006101000a81548173ffffffffffffffffffffffffffffffffffffffff021916908373ffffffffffffffffffffffffffffffffffffffff16021790555090505060018390806001815401808255809150506001900390600052602060002001600090919091909150908161025b9190611272565b503373ffffffffffffffffffffffffffffffffffffffff167f03966a435a0f781724ea99107cdb6e85607548ed192efafb32568bd25fc72c428484846040516102a69392919061137d565b60405180910390a2505050565b6060600060018054905067ffffffffffffffff8111156102d6576102d5610a51565b5b60405190808252806020026020018201604052801561030f57816020015b6102fc6109e4565b8152602001906001900390816102f45790505b50905060005b60018054905081101561059f57600060018281548110610338576103376113c9565b5b9060005260206000200160405161034f919061147b565b90815260200160405180910390206040518060800160405290816000820180546103789061100e565b80601f01602080910402602001604051908101604052809291908181526020018280546103a49061100e565b80156103f15780601f106103c6576101008083540402835291602001916103f1565b820191906000526020600020905b8154815290600101906020018083116103d457829003601f168201915b5050505050815260200160018201805461040a9061100e565b80601f01602080910402602001604051908101604052809291908181526020018280546104369061100e565b80156104835780601f1061045857610100808354040283529160200191610483565b820191906000526020600020905b81548152906001019060200180831161046657829003601f168201915b5050505050815260200160028201805461049c9061100e565b80601f01602080910402602001604051908101604052809291908181526020018280546104c89061100e565b80156105155780601f106104ea57610100808354040283529160200191610515565b820191906000526020600020905b8154815290600101906020018083116104f857829003601f168201915b505050505081526020016003820160009054906101000a900473ffffffffffffffffffffffffffffffffffffffff1673ffffffffffffffffffffffffffffffffffffffff1673ffffffffffffffffffffffffffffffffffffffff1681525050828281518110610587576105866113c9565b5b60200260200101819052508080600101915050610315565b508091505090565b600080836040516105b89190610fc8565b908152602001604051809103902060000180546105d49061100e565b905003610616576040517f08c379a000000000000000000000000000000000000000000000000000000000815260040161060d906114de565b60405180910390fd5b3373ffffffffffffffffffffffffffffffffffffffff1660008360405161063d9190610fc8565b908152602001604051809103902060030160009054906101000a900473ffffffffffffffffffffffffffffffffffffffff1673ffffffffffffffffffffffffffffffffffffffff16146106c5576040517f08c379a00000000000000000000000000000000000000000000000000000000081526004016106bc9061154a565b60405180910390fd5b806000836040516106d69190610fc8565b908152602001604051809103902060020190816106f39190611272565b507f34560c1e26a6b114f694931e8e4d11a0a5f68ed24c633380f95fd1baf2356439828260405161072592919061156a565b60405180910390a15050565b6107396109e4565b6000808360405161074a9190610fc8565b908152602001604051809103902060000180546107669061100e565b9050036107a8576040517f08c379a000000000000000000000000000000000000000000000000000000000815260040161079f906115ed565b60405180910390fd5b6000826040516107b89190610fc8565b90815260200160405180910390206040518060800160405290816000820180546107e19061100e565b80601f016020809104026020016040519081016040528092919081815260200182805461080d9061100e565b801561085a5780601f1061082f5761010080835404028352916020019161085a565b820191906000526020600020905b81548152906001019060200180831161083d57829003601f168201915b505050505081526020016001820180546108739061100e565b80601f016020809104026020016040519081016040528092919081815260200182805461089f9061100e565b80156108ec5780601f106108c1576101008083540402835291602001916108ec565b820191906000526020600020905b8154815290600101906020018083116108cf57829003601f168201915b505050505081526020016002820180546109059061100e565b80601f01602080910402602001604051908101604052809291908181526020018280546109319061100e565b801561097e5780601f106109535761010080835404028352916020019161097e565b820191906000526020600020905b81548152906001019060200180831161096157829003601f168201915b505050505081526020016003820160009054906101000a900473ffffffffffffffffffffffffffffffffffffffff1673ffffffffffffffffffffffffffffffffffffffff1673ffffffffffffffffffffffffffffffffffffffff16815250509050919050565b6040518060800160405280606081526020016060815260200160608152602001600073ffffffffffffffffffffffffffffffffffffffff1681525090565b6000604051905090565b600080fd5b600080fd5b600080fd5b600080fd5b6000601f19601f8301169050919050565b7f4e487b7100000000000000000000000000000000000000000000000000000000600052604160045260246000fd5b610a8982610a40565b810181811067ffffffffffffffff82111715610aa857610aa7610a51565b5b80604052505050565b6000610abb610a22565b9050610ac78282610a80565b919050565b600067ffffffffffffffff821115610ae757610ae6610a51565b5b610af082610a40565b9050602081019050919050565b82818337600083830152505050565b6000610b1f610b1a84610acc565b610ab1565b905082815260208101848484011115610b3b57610b3a610a3b565b5b610b46848285610afd565b509392505050565b600082601f830112610b6357610b62610a36565b5b8135610b73848260208601610b0c565b91505092915050565b600080600060608486031215610b9557610b94610a2c565b5b600084013567ffffffffffffffff811115610bb357610bb2610a31565b5b610bbf86828701610b4e565b935050602084013567ffffffffffffffff811115610be057610bdf610a31565b5b610bec86828701610b4e565b925050604084013567ffffffffffffffff811115610c0d57610c0c610a31565b5b610c1986828701610b4e565b9150509250925092565b600081519050919050565b600082825260208201905092915050565b6000819050602082019050919050565b600081519050919050565b600082825260208201905092915050565b60005b83811015610c89578082015181840152602081019050610c6e565b60008484015250505050565b6000610ca082610c4f565b610caa8185610c5a565b9350610cba818560208601610c6b565b610cc381610a40565b840191505092915050565b600073ffffffffffffffffffffffffffffffffffffffff82169050919050565b6000610cf982610cce565b9050919050565b610d0981610cee565b82525050565b60006080830160008301518482036000860152610d2c8282610c95565b91505060208301518482036020860152610d468282610c95565b91505060408301518482036040860152610d608282610c95565b9150506060830151610d756060860182610d00565b508091505092915050565b6000610d8c8383610d0f565b905092915050565b6000602082019050919050565b6000610dac82610c23565b610db68185610c2e565b935083602082028501610dc885610c3f565b8060005b85811015610e045784840389528151610de58582610d80565b9450610df083610d94565b925060208a01995050600181019050610dcc565b50829750879550505050505092915050565b60006020820190508181036000830152610e308184610da1565b905092915050565b60008060408385031215610e4f57610e4e610a2c565b5b600083013567ffffffffffffffff811115610e6d57610e6c610a31565b5b610e7985828601610b4e565b925050602083013567ffffffffffffffff811115610e9a57610e99610a31565b5b610ea685828601610b4e565b9150509250929050565b600060208284031215610ec657610ec5610a2c565b5b600082013567ffffffffffffffff811115610ee457610ee3610a31565b5b610ef084828501610b4e565b91505092915050565b60006080830160008301518482036000860152610f168282610c95565b91505060208301518482036020860152610f308282610c95565b91505060408301518482036040860152610f4a8282610c95565b9150506060830151610f5f6060860182610d00565b508091505092915050565b60006020820190508181036000830152610f848184610ef9565b905092915050565b600081905092915050565b6000610fa282610c4f565b610fac8185610f8c565b9350610fbc818560208601610c6b565b80840191505092915050565b6000610fd48284610f97565b915081905092915050565b7f4e487b7100000000000000000000000000000000000000000000000000000000600052602260045260246000fd5b6000600282049050600182168061102657607f821691505b60208210810361103957611038610fdf565b5b50919050565b600082825260208201905092915050565b7f547261636b696e67204944206578697374730000000000000000000000000000600082015250565b600061108660128361103f565b915061109182611050565b602082019050919050565b600060208201905081810360008301526110b581611079565b9050919050565b60008190508160005260206000209050919050565b60006020601f8301049050919050565b600082821b905092915050565b60006008830261111e7fffffffffffffffffffffffffffffffffffffffffffffffffffffffffffffffff826110e1565b61112886836110e1565b95508019841693508086168417925050509392505050565b6000819050919050565b6000819050919050565b600061116f61116a61116584611140565b61114a565b611140565b9050919050565b6000819050919050565b61118983611154565b61119d61119582611176565b8484546110ee565b825550505050565b600090565b6111b26111a5565b6111bd818484611180565b505050565b5b818110156111e1576111d66000826111aa565b6001810190506111c3565b5050565b601f821115611226576111f7816110bc565b611200846110d1565b8101602085101561120f578190505b61122361121b856110d1565b8301826111c2565b50505b505050565b600082821c905092915050565b60006112496000198460080261122b565b1980831691505092915050565b60006112628383611238565b9150826002028217905092915050565b61127b82610c4f565b67ffffffffffffffff81111561129457611293610a51565b5b61129e825461100e565b6112a98282856111e5565b600060209050601f8311600181146112dc57600084156112ca578287015190505b6112d48582611256565b86555061133c565b601f1984166112ea866110bc565b60005b82811015611312578489015182556001820191506020850194506020810190506112ed565b8683101561132f578489015161132b601f891682611238565b8355505b6001600288020188555050505b505050505050565b600061134f82610c4f565b611359818561103f565b9350611369818560208601610c6b565b61137281610a40565b840191505092915050565b600060608201905081810360008301526113978186611344565b905081810360208301526113ab8185611344565b905081810360408301526113bf8184611344565b9050949350505050565b7f4e487b7100000000000000000000000000000000000000000000000000000000600052603260045260246000fd5b600081546114058161100e565b61140f8186610f8c565b9450600182166000811461142a576001811461143f57611472565b60ff1983168652811515820286019350611472565b611448856110bc565b60005b8381101561146a5781548189015260018201915060208101905061144b565b838801955050505b50505092915050565b600061148782846113f8565b915081905092915050565b7f547261636b696e6720494420646f6573206e6f74206578697374000000000000600082015250565b60006114c8601a8361103f565b91506114d382611492565b602082019050919050565b600060208201905081810360008301526114f7816114bb565b9050919050565b7f4f6e6c79206f776e65722063616e207570646174650000000000000000000000600082015250565b600061153460158361103f565b915061153f826114fe565b602082019050919050565b6000602082019050818103600083015261156381611527565b9050919050565b600060408201905081810360008301526115848185611344565b905081810360208301526115988184611344565b90509392505050565b7f547261636b696e67204944206e6f7420666f756e640000000000000000000000600082015250565b60006115d760158361103f565b91506115e2826115a1565b602082019050919050565b60006020820190508181036000830152611606816115ca565b905091905056fea26469706673582212207d5083466e5b7014e8ecee1e0ea822c3521c96139777dc77672f8a1752ee875a64736f6c634300081c0033","opcodes":"PUSH1 0x80 PUSH1 0x40 MSTORE CALLVALUE DUP1 ISZERO PUSH1 0xF JUMPI PUSH1 0x0 DUP1 REVERT JUMPDEST POP PUSH2 0x1643 DUP1 PUSH2 0x1F PUSH1 0x0 CODECOPY PUSH1 0x0 RETURN INVALID PUSH1 0x80 PUSH1 0x40 MSTORE CALLVALUE DUP1 ISZERO PUSH2 0x10 JUMPI PUSH1 0x0 DUP1 REVERT JUMPDEST POP PUSH1 0x4 CALLDATASIZE LT PUSH2 0x4C JUMPI PUSH1 0x0 CALLDATALOAD PUSH1 0xE0 SHR DUP1 PUSH4 0x2C601172 EQ PUSH2 0x51 JUMPI DUP1 PUSH4 0x494DAD6C EQ PUSH2 0x6D JUMPI DUP1 PUSH4 0x7FEE6AA9 EQ PUSH2 0x8B JUMPI DUP1 PUSH4 0xDA34F3D5 EQ PUSH2 0xA7 JUMPI JUMPDEST PUSH1 0x0 DUP1 REVERT JUMPDEST PUSH2 0x6B PUSH1 0x4 DUP1 CALLDATASIZE SUB DUP2 ADD SWAP1 PUSH2 0x66 SWAP2 SWAP1 PUSH2 0xB7C JUMP JUMPDEST PUSH2 0xD7 JUMP JUMPDEST STOP JUMPDEST PUSH2 0x75 PUSH2 0x2B3 JUMP JUMPDEST PUSH1 0x40 MLOAD PUSH2 0x82 SWAP2 SWAP1 PUSH2 0xE16 JUMP JUMPDEST PUSH1 0x40 MLOAD DUP1 SWAP2 SUB SWAP1 RETURN JUMPDEST PUSH2 0xA5 PUSH1 0x4 DUP1 CALLDATASIZE SUB DUP2 ADD SWAP1 PUSH2 0xA0 SWAP2 SWAP1 PUSH2 0xE38 JUMP JUMPDEST PUSH2 0x5A7 JUMP JUMPDEST STOP JUMPDEST PUSH2 0xC1 PUSH1 0x4 DUP1 CALLDATASIZE SUB DUP2 ADD SWAP1 PUSH2 0xBC SWAP2 SWAP1 PUSH2 0xEB0 JUMP JUMPDEST PUSH2 0x731 JUMP JUMPDEST PUSH1 0x40 MLOAD PUSH2 0xCE SWAP2 SWAP1 PUSH2 0xF6A JUMP JUMPDEST PUSH1 0x40 MLOAD DUP1 SWAP2 SUB SWAP1 RETURN JUMPDEST PUSH1 0x0 DUP1 DUP5 PUSH1 0x40 MLOAD PUSH2 0xE8 SWAP2 SWAP1 PUSH2 0xFC8 JUMP JUMPDEST SWAP1 DUP2 MSTORE PUSH1 0x20 ADD PUSH1 0x40 MLOAD DUP1 SWAP2 SUB SWAP1 KECCAK256 PUSH1 0x0 ADD DUP1 SLOAD PUSH2 0x104 SWAP1 PUSH2 0x100E JUMP JUMPDEST SWAP1 POP EQ PUSH2 0x146 JUMPI PUSH1 0x40 MLOAD PUSH32 0x8C379A000000000000000000000000000000000000000000000000000000000 DUP2 MSTORE PUSH1 0x4 ADD PUSH2 0x13D SWAP1 PUSH2 0x109C JUMP JUMPDEST PUSH1 0x40 MLOAD DUP1 SWAP2 SUB SWAP1 REVERT JUMPDEST PUSH1 0x40 MLOAD DUP1 PUSH1 0x80 ADD PUSH1 0x40 MSTORE DUP1 DUP5 DUP2 MSTORE PUSH1 0x20 ADD DUP4 DUP2 MSTORE PUSH1 0x20 ADD DUP3 DUP2 MSTORE PUSH1 0x20 ADD CALLER PUSH20 0xFFFFFFFFFFFFFFFFFFFFFFFFFFFFFFFFFFFFFFFF AND DUP2 MSTORE POP PUSH1 0x0 DUP5 PUSH1 0x40 MLOAD PUSH2 0x18D SWAP2 SWAP1 PUSH2 0xFC8 JUMP JUMPDEST SWAP1 DUP2 MSTORE PUSH1 0x20 ADD PUSH1 0x40 MLOAD DUP1 SWAP2 SUB SWAP1 KECCAK256 PUSH1 0x0 DUP3 ADD MLOAD DUP2 PUSH1 0x0 ADD SWAP1 DUP2 PUSH2 0x1B0 SWAP2 SWAP1 PUSH2 0x1272 JUMP JUMPDEST POP PUSH1 0x20 DUP3 ADD MLOAD DUP2 PUSH1 0x1 ADD SWAP1 DUP2 PUSH2 0x1C6 SWAP2 SWAP1 PUSH2 0x1272 JUMP JUMPDEST POP PUSH1 0x40 DUP3 ADD MLOAD DUP2 PUSH1 0x2 ADD SWAP1 DUP2 PUSH2 0x1DC SWAP2 SWAP1 PUSH2 0x1272 JUMP JUMPDEST POP PUSH1 0x60 DUP3 ADD MLOAD DUP2 PUSH1 0x3 ADD PUSH1 0x0 PUSH2 0x100 EXP DUP2 SLOAD DUP2 PUSH20 0xFFFFFFFFFFFFFFFFFFFFFFFFFFFFFFFFFFFFFFFF MUL NOT AND SWAP1 DUP4 PUSH20 0xFFFFFFFFFFFFFFFFFFFFFFFFFFFFFFFFFFFFFFFF AND MUL OR SWAP1 SSTORE POP SWAP1 POP POP PUSH1 0x1 DUP4 SWAP1 DUP1 PUSH1 0x1 DUP2 SLOAD ADD DUP1 DUP3 SSTORE DUP1 SWAP2 POP POP PUSH1 0x1 SWAP1 SUB SWAP1 PUSH1 0x0 MSTORE PUSH1 0x20 PUSH1 0x0 KECCAK256 ADD PUSH1 0x0 SWAP1 SWAP2 SWAP1 SWAP2 SWAP1 SWAP2 POP SWAP1 DUP2 PUSH2 0x25B SWAP2 SWAP1 PUSH2 0x1272 JUMP JUMPDEST POP CALLER PUSH20 0xFFFFFFFFFFFFFFFFFFFFFFFFFFFFFFFFFFFFFFFF AND PUSH32 0x3966A435A0F781724EA99107CDB6E85607548ED192EFAFB32568BD25FC72C42 DUP5 DUP5 DUP5 PUSH1 0x40 MLOAD PUSH2 0x2A6 SWAP4 SWAP3 SWAP2 SWAP1 PUSH2 0x137D JUMP JUMPDEST PUSH1 0x40 MLOAD DUP1 SWAP2 SUB SWAP1 LOG2 POP POP POP JUMP JUMPDEST PUSH1 0x60 PUSH1 0x0 PUSH1 0x1 DUP1 SLOAD SWAP1 POP PUSH8 0xFFFFFFFFFFFFFFFF DUP2 GT ISZERO PUSH2 0x2D6 JUMPI PUSH2 0x2D5 PUSH2 0xA51 JUMP JUMPDEST JUMPDEST PUSH1 0x40 MLOAD SWAP1 DUP1 DUP3 MSTORE DUP1 PUSH1 0x20 MUL PUSH1 0x20 ADD DUP3 ADD PUSH1 0x40 MSTORE DUP1 ISZERO PUSH2 0x30F JUMPI DUP2 PUSH1 0x20 ADD JUMPDEST PUSH2 0x2FC PUSH2 0x9E4 JUMP JUMPDEST DUP2 MSTORE PUSH1 0x20 ADD SWAP1 PUSH1 0x1 SWAP1 SUB SWAP1 DUP2 PUSH2 0x2F4 JUMPI SWAP1 POP JUMPDEST POP SWAP1 POP PUSH1 0x0 JUMPDEST PUSH1 0x1 DUP1 SLOAD SWAP1 POP DUP2 LT ISZERO PUSH2 0x59F JUMPI PUSH1 0x0 PUSH1 0x1 DUP3 DUP2 SLOAD DUP2 LT PUSH2 0x338 JUMPI PUSH2 0x337 PUSH2 0x13C9 JUMP JUMPDEST JUMPDEST SWAP1 PUSH1 0x0 MSTORE PUSH1 0x20 PUSH1 0x0 KECCAK256 ADD PUSH1 0x40 MLOAD PUSH2 0x34F SWAP2 SWAP1 PUSH2 0x147B JUMP JUMPDEST SWAP1 DUP2 MSTORE PUSH1 0x20 ADD PUSH1 0x40 MLOAD DUP1 SWAP2 SUB SWAP1 KECCAK256 PUSH1 0x40 MLOAD DUP1 PUSH1 0x80 ADD PUSH1 0x40 MSTORE SWAP1 DUP2 PUSH1 0x0 DUP3 ADD DUP1 SLOAD PUSH2 0x378 SWAP1 PUSH2 0x100E JUMP JUMPDEST DUP1 PUSH1 0x1F ADD PUSH1 0x20 DUP1 SWAP2 DIV MUL PUSH1 0x20 ADD PUSH1 0x40 MLOAD SWAP1 DUP2 ADD PUSH1 0x40 MSTORE DUP1 SWAP3 SWAP2 SWAP1 DUP2 DUP2 MSTORE PUSH1 0x20 ADD DUP3 DUP1 SLOAD PUSH2 0x3A4 SWAP1 PUSH2 0x100E JUMP JUMPDEST DUP1 ISZERO PUSH2 0x3F1 JUMPI DUP1 PUSH1 0x1F LT PUSH2 0x3C6 JUMPI PUSH2 0x100 DUP1 DUP4 SLOAD DIV MUL DUP4 MSTORE SWAP2 PUSH1 0x20 ADD SWAP2 PUSH2 0x3F1 JUMP JUMPDEST DUP3 ADD SWAP2 SWAP1 PUSH1 0x0 MSTORE PUSH1 0x20 PUSH1 0x0 KECCAK256 SWAP1 JUMPDEST DUP2 SLOAD DUP2 MSTORE SWAP1 PUSH1 0x1 ADD SWAP1 PUSH1 0x20 ADD DUP1 DUP4 GT PUSH2 0x3D4 JUMPI DUP3 SWAP1 SUB PUSH1 0x1F AND DUP3 ADD SWAP2 JUMPDEST POP POP POP POP POP DUP2 MSTORE PUSH1 0x20 ADD PUSH1 0x1 DUP3 ADD DUP1 SLOAD PUSH2 0x40A SWAP1 PUSH2 0x100E JUMP JUMPDEST DUP1 PUSH1 0x1F ADD PUSH1 0x20 DUP1 SWAP2 DIV MUL PUSH1 0x20 ADD PUSH1 0x40 MLOAD SWAP1 DUP2 ADD PUSH1 0x40 MSTORE DUP1 SWAP3 SWAP2 SWAP1 DUP2 DUP2 MSTORE PUSH1 0x20 ADD DUP3 DUP1 SLOAD PUSH2 0x436 SWAP1 PUSH2 0x100E JUMP JUMPDEST DUP1 ISZERO PUSH2 0x483 JUMPI DUP1 PUSH1 0x1F LT PUSH2 0x458 JUMPI PUSH2 0x100 DUP1 DUP4 SLOAD DIV MUL DUP4 MSTORE SWAP2 PUSH1 0x20 ADD SWAP2 PUSH2 0x483 JUMP JUMPDEST DUP3 ADD SWAP2 SWAP1 PUSH1 0x0 MSTORE PUSH1 0x20 PUSH1 0x0 KECCAK256 SWAP1 JUMPDEST DUP2 SLOAD DUP2 MSTORE SWAP1 PUSH1 0x1 ADD SWAP1 PUSH1 0x20 ADD DUP1 DUP4 GT PUSH2 0x466 JUMPI DUP3 SWAP1 SUB PUSH1 0x1F AND DUP3 ADD SWAP2 JUMPDEST POP POP POP POP POP DUP2 MSTORE PUSH1 0x20 ADD PUSH1 0x2 DUP3 ADD DUP1 SLOAD PUSH2 0x49C SWAP1 PUSH2 0x100E JUMP JUMPDEST DUP1 PUSH1 0x1F ADD PUSH1 0x20 DUP1 SWAP2 DIV MUL PUSH1 0x20 ADD PUSH1 0x40 MLOAD SWAP1 DUP2 ADD PUSH1 0x40 MSTORE DUP1 SWAP3 SWAP2 SWAP1 DUP2 DUP2 MSTORE PUSH1 0x20 ADD DUP3 DUP1 SLOAD PUSH2 0x4C8 SWAP1 PUSH2 0x100E JUMP JUMPDEST DUP1 ISZERO PUSH2 0x515 JUMPI DUP1 PUSH1 0x1F LT PUSH2 0x4EA JUMPI PUSH2 0x100 DUP1 DUP4 SLOAD DIV MUL DUP4 MSTORE SWAP2 PUSH1 0x20 ADD SWAP2 PUSH2 0x515 JUMP JUMPDEST DUP3 ADD SWAP2 SWAP1 PUSH1 0x0 MSTORE PUSH1 0x20 PUSH1 0x0 KECCAK256 SWAP1 JUMPDEST DUP2 SLOAD DUP2 MSTORE SWAP1 PUSH1 0x1 ADD SWAP1 PUSH1 0x20 ADD DUP1 DUP4 GT PUSH2 0x4F8 JUMPI DUP3 SWAP1 SUB PUSH1 0x1F AND DUP3 ADD SWAP2 JUMPDEST POP POP POP POP POP DUP2 MSTORE PUSH1 0x20 ADD PUSH1 0x3 DUP3 ADD PUSH1 0x0 SWAP1 SLOAD SWAP1 PUSH2 0x100 EXP SWAP1 DIV PUSH20 0xFFFFFFFFFFFFFFFFFFFFFFFFFFFFFFFFFFFFFFFF AND PUSH20 0xFFFFFFFFFFFFFFFFFFFFFFFFFFFFFFFFFFFFFFFF AND PUSH20 0xFFFFFFFFFFFFFFFFFFFFFFFFFFFFFFFFFFFFFFFF AND DUP2 MSTORE POP POP DUP3 DUP3 DUP2 MLOAD DUP2 LT PUSH2 0x587 JUMPI PUSH2 0x586 PUSH2 0x13C9 JUMP JUMPDEST JUMPDEST PUSH1 0x20 MUL PUSH1 0x20 ADD ADD DUP2 SWAP1 MSTORE POP DUP1 DUP1 PUSH1 0x1 ADD SWAP2 POP POP PUSH2 0x315 JUMP JUMPDEST POP DUP1 SWAP2 POP POP SWAP1 JUMP JUMPDEST PUSH1 0x0 DUP1 DUP4 PUSH1 0x40 MLOAD PUSH2 0x5B8 SWAP2 SWAP1 PUSH2 0xFC8 JUMP JUMPDEST SWAP1 DUP2 MSTORE PUSH1 0x20 ADD PUSH1 0x40 MLOAD DUP1 SWAP2 SUB SWAP1 KECCAK256 PUSH1 0x0 ADD DUP1 SLOAD PUSH2 0x5D4 SWAP1 PUSH2 0x100E JUMP JUMPDEST SWAP1 POP SUB PUSH2 0x616 JUMPI PUSH1 0x40 MLOAD PUSH32 0x8C379A000000000000000000000000000000000000000000000000000000000 DUP2 MSTORE PUSH1 0x4 ADD PUSH2 0x60D SWAP1 PUSH2 0x14DE JUMP JUMPDEST PUSH1 0x40 MLOAD DUP1 SWAP2 SUB SWAP1 REVERT JUMPDEST CALLER PUSH20 0xFFFFFFFFFFFFFFFFFFFFFFFFFFFFFFFFFFFFFFFF AND PUSH1 0x0 DUP4 PUSH1 0x40 MLOAD PUSH2 0x63D SWAP2 SWAP1 PUSH2 0xFC8 JUMP JUMPDEST SWAP1 DUP2 MSTORE PUSH1 0x20 ADD PUSH1 0x40 MLOAD DUP1 SWAP2 SUB SWAP1 KECCAK256 PUSH1 0x3 ADD PUSH1 0x0 SWAP1 SLOAD SWAP1 PUSH2 0x100 EXP SWAP1 DIV PUSH20 0xFFFFFFFFFFFFFFFFFFFFFFFFFFFFFFFFFFFFFFFF AND PUSH20 0xFFFFFFFFFFFFFFFFFFFFFFFFFFFFFFFFFFFFFFFF AND EQ PUSH2 0x6C5 JUMPI PUSH1 0x40 MLOAD PUSH32 0x8C379A000000000000000000000000000000000000000000000000000000000 DUP2 MSTORE PUSH1 0x4 ADD PUSH2 0x6BC SWAP1 PUSH2 0x154A JUMP JUMPDEST PUSH1 0x40 MLOAD DUP1 SWAP2 SUB SWAP1 REVERT JUMPDEST DUP1 PUSH1 0x0 DUP4 PUSH1 0x40 MLOAD PUSH2 0x6D6 SWAP2 SWAP1 PUSH2 0xFC8 JUMP JUMPDEST SWAP1 DUP2 MSTORE PUSH1 0x20 ADD PUSH1 0x40 MLOAD DUP1 SWAP2 SUB SWAP1 KECCAK256 PUSH1 0x2 ADD SWAP1 DUP2 PUSH2 0x6F3 SWAP2 SWAP1 PUSH2 0x1272 JUMP JUMPDEST POP PUSH32 0x34560C1E26A6B114F694931E8E4D11A0A5F68ED24C633380F95FD1BAF2356439 DUP3 DUP3 PUSH1 0x40 MLOAD PUSH2 0x725 SWAP3 SWAP2 SWAP1 PUSH2 0x156A JUMP JUMPDEST PUSH1 0x40 MLOAD DUP1 SWAP2 SUB SWAP1 LOG1 POP POP JUMP JUMPDEST PUSH2 0x739 PUSH2 0x9E4 JUMP JUMPDEST PUSH1 0x0 DUP1 DUP4 PUSH1 0x40 MLOAD PUSH2 0x74A SWAP2 SWAP1 PUSH2 0xFC8 JUMP JUMPDEST SWAP1 DUP2 MSTORE PUSH1 0x20 ADD PUSH1 0x40 MLOAD DUP1 SWAP2 SUB SWAP1 KECCAK256 PUSH1 0x0 ADD DUP1 SLOAD PUSH2 0x766 SWAP1 PUSH2 0x100E JUMP JUMPDEST SWAP1 POP SUB PUSH2 0x7A8 JUMPI PUSH1 0x40 MLOAD PUSH32 0x8C379A000000000000000000000000000000000000000000000000000000000 DUP2 MSTORE PUSH1 0x4 ADD PUSH2 0x79F SWAP1 PUSH2 0x15ED JUMP JUMPDEST PUSH1 0x40 MLOAD DUP1 SWAP2 SUB SWAP1 REVERT JUMPDEST PUSH1 0x0 DUP3 PUSH1 0x40 MLOAD PUSH2 0x7B8 SWAP2 SWAP1 PUSH2 0xFC8 JUMP JUMPDEST SWAP1 DUP2 MSTORE PUSH1 0x20 ADD PUSH1 0x40 MLOAD DUP1 SWAP2 SUB SWAP1 KECCAK256 PUSH1 0x40 MLOAD DUP1 PUSH1 0x80 ADD PUSH1 0x40 MSTORE SWAP1 DUP2 PUSH1 0x0 DUP3 ADD DUP1 SLOAD PUSH2 0x7E1 SWAP1 PUSH2 0x100E JUMP JUMPDEST DUP1 PUSH1 0x1F ADD PUSH1 0x20 DUP1 SWAP2 DIV MUL PUSH1 0x20 ADD PUSH1 0x40 MLOAD SWAP1 DUP2 ADD PUSH1 0x40 MSTORE DUP1 SWAP3 SWAP2 SWAP1 DUP2 DUP2 MSTORE PUSH1 0x20 ADD DUP3 DUP1 SLOAD PUSH2 0x80D SWAP1 PUSH2 0x100E JUMP JUMPDEST DUP1 ISZERO PUSH2 0x85A JUMPI DUP1 PUSH1 0x1F LT PUSH2 0x82F JUMPI PUSH2 0x100 DUP1 DUP4 SLOAD DIV MUL DUP4 MSTORE SWAP2 PUSH1 0x20 ADD SWAP2 PUSH2 0x85A JUMP JUMPDEST DUP3 ADD SWAP2 SWAP1 PUSH1 0x0 MSTORE PUSH1 0x20 PUSH1 0x0 KECCAK256 SWAP1 JUMPDEST DUP2 SLOAD DUP2 MSTORE SWAP1 PUSH1 0x1 ADD SWAP1 PUSH1 0x20 ADD DUP1 DUP4 GT PUSH2 0x83D JUMPI DUP3 SWAP1 SUB PUSH1 0x1F AND DUP3 ADD SWAP2 JUMPDEST POP POP POP POP POP DUP2 MSTORE PUSH1 0x20 ADD PUSH1 0x1 DUP3 ADD DUP1 SLOAD PUSH2 0x873 SWAP1 PUSH2 0x100E JUMP JUMPDEST DUP1 PUSH1 0x1F ADD PUSH1 0x20 DUP1 SWAP2 DIV MUL PUSH1 0x20 ADD PUSH1 0x40 MLOAD SWAP1 DUP2 ADD PUSH1 0x40 MSTORE DUP1 SWAP3 SWAP2 SWAP1 DUP2 DUP2 MSTORE PUSH1 0x20 ADD DUP3 DUP1 SLOAD PUSH2 0x89F SWAP1 PUSH2 0x100E JUMP JUMPDEST DUP1 ISZERO PUSH2 0x8EC JUMPI DUP1 PUSH1 0x1F LT PUSH2 0x8C1 JUMPI PUSH2 0x100 DUP1 DUP4 SLOAD DIV MUL DUP4 MSTORE SWAP2 PUSH1 0x20 ADD SWAP2 PUSH2 0x8EC JUMP JUMPDEST DUP3 ADD SWAP2 SWAP1 PUSH1 0x0 MSTORE PUSH1 0x20 PUSH1 0x0 KECCAK256 SWAP1 JUMPDEST DUP2 SLOAD DUP2 MSTORE SWAP1 PUSH1 0x1 ADD SWAP1 PUSH1 0x20 ADD DUP1 DUP4 GT PUSH2 0x8CF JUMPI DUP3 SWAP1 SUB PUSH1 0x1F AND DUP3 ADD SWAP2 JUMPDEST POP POP POP POP POP DUP2 MSTORE PUSH1 0x20 ADD PUSH1 0x2 DUP3 ADD DUP1 SLOAD PUSH2 0x905 SWAP1 PUSH2 0x100E JUMP JUMPDEST DUP1 PUSH1 0x1F ADD PUSH1 0x20 DUP1 SWAP2 DIV MUL PUSH1 0x20 ADD PUSH1 0x40 MLOAD SWAP1 DUP2 ADD PUSH1 0x40 MSTORE DUP1 SWAP3 SWAP2 SWAP1 DUP2 DUP2 MSTORE PUSH1 0x20 ADD DUP3 DUP1 SLOAD PUSH2 0x931 SWAP1 PUSH2 0x100E JUMP JUMPDEST DUP1 ISZERO PUSH2 0x97E JUMPI DUP1 PUSH1 0x1F LT PUSH2 0x953 JUMPI PUSH2 0x100 DUP1 DUP4 SLOAD DIV MUL DUP4 MSTORE SWAP2 PUSH1 0x20 ADD SWAP2 PUSH2 0x97E JUMP JUMPDEST DUP3 ADD SWAP2 SWAP1 PUSH1 0x0 MSTORE PUSH1 0x20 PUSH1 0x0 KECCAK256 SWAP1 JUMPDEST DUP2 SLOAD DUP2 MSTORE SWAP1 PUSH1 0x1 ADD SWAP1 PUSH1 0x20 ADD DUP1 DUP4 GT PUSH2 0x961 JUMPI DUP3 SWAP1 SUB PUSH1 0x1F AND DUP3 ADD SWAP2 JUMPDEST POP POP POP POP POP DUP2 MSTORE PUSH1 0x20 ADD PUSH1 0x3 DUP3 ADD PUSH1 0x0 SWAP1 SLOAD SWAP1 PUSH2 0x100 EXP SWAP1 DIV PUSH20 0xFFFFFFFFFFFFFFFFFFFFFFFFFFFFFFFFFFFFFFFF AND PUSH20 0xFFFFFFFFFFFFFFFFFFFFFFFFFFFFFFFFFFFFFFFF AND PUSH20 0xFFFFFFFFFFFFFFFFFFFFFFFFFFFFFFFFFFFFFFFF AND DUP2 MSTORE POP POP SWAP1 POP SWAP2 SWAP1 POP JUMP JUMPDEST PUSH1 0x40 MLOAD DUP1 PUSH1 0x80 ADD PUSH1 0x40 MSTORE DUP1 PUSH1 0x60 DUP2 MSTORE PUSH1 0x20 ADD PUSH1 0x60 DUP2 MSTORE PUSH1 0x20 ADD PUSH1 0x60 DUP2 MSTORE PUSH1 0x20 ADD PUSH1 0x0 PUSH20 0xFFFFFFFFFFFFFFFFFFFFFFFFFFFFFFFFFFFFFFFF AND DUP2 MSTORE POP SWAP1 JUMP JUMPDEST PUSH1 0x0 PUSH1 0x40 MLOAD SWAP1 POP SWAP1 JUMP JUMPDEST PUSH1 0x0 DUP1 REVERT JUMPDEST PUSH1 0x0 DUP1 REVERT JUMPDEST PUSH1 0x0 DUP1 REVERT JUMPDEST PUSH1 0x0 DUP1 REVERT JUMPDEST PUSH1 0x0 PUSH1 0x1F NOT PUSH1 0x1F DUP4 ADD AND SWAP1 POP SWAP2 SWAP1 POP JUMP JUMPDEST PUSH32 0x4E487B7100000000000000000000000000000000000000000000000000000000 PUSH1 0x0 MSTORE PUSH1 0x41 PUSH1 0x4 MSTORE PUSH1 0x24 PUSH1 0x0 REVERT JUMPDEST PUSH2 0xA89 DUP3 PUSH2 0xA40 JUMP JUMPDEST DUP2 ADD DUP2 DUP2 LT PUSH8 0xFFFFFFFFFFFFFFFF DUP3 GT OR ISZERO PUSH2 0xAA8 JUMPI PUSH2 0xAA7 PUSH2 0xA51 JUMP JUMPDEST JUMPDEST DUP1 PUSH1 0x40 MSTORE POP POP POP JUMP JUMPDEST PUSH1 0x0 PUSH2 0xABB PUSH2 0xA22 JUMP JUMPDEST SWAP1 POP PUSH2 0xAC7 DUP3 DUP3 PUSH2 0xA80 JUMP JUMPDEST SWAP2 SWAP1 POP JUMP JUMPDEST PUSH1 0x0 PUSH8 0xFFFFFFFFFFFFFFFF DUP3 GT ISZERO PUSH2 0xAE7 JUMPI PUSH2 0xAE6 PUSH2 0xA51 JUMP JUMPDEST JUMPDEST PUSH2 0xAF0 DUP3 PUSH2 0xA40 JUMP JUMPDEST SWAP1 POP PUSH1 0x20 DUP2 ADD SWAP1 POP SWAP2 SWAP1 POP JUMP JUMPDEST DUP3 DUP2 DUP4 CALLDATACOPY PUSH1 0x0 DUP4 DUP4 ADD MSTORE POP POP POP JUMP JUMPDEST PUSH1 0x0 PUSH2 0xB1F PUSH2 0xB1A DUP5 PUSH2 0xACC JUMP JUMPDEST PUSH2 0xAB1 JUMP JUMPDEST SWAP1 POP DUP3 DUP2 MSTORE PUSH1 0x20 DUP2 ADD DUP5 DUP5 DUP5 ADD GT ISZERO PUSH2 0xB3B JUMPI PUSH2 0xB3A PUSH2 0xA3B JUMP JUMPDEST JUMPDEST PUSH2 0xB46 DUP5 DUP3 DUP6 PUSH2 0xAFD JUMP JUMPDEST POP SWAP4 SWAP3 POP POP POP JUMP JUMPDEST PUSH1 0x0 DUP3 PUSH1 0x1F DUP4 ADD SLT PUSH2 0xB63 JUMPI PUSH2 0xB62 PUSH2 0xA36 JUMP JUMPDEST JUMPDEST DUP2 CALLDATALOAD PUSH2 0xB73 DUP5 DUP3 PUSH1 0x20 DUP7 ADD PUSH2 0xB0C JUMP JUMPDEST SWAP2 POP POP SWAP3 SWAP2 POP POP JUMP JUMPDEST PUSH1 0x0 DUP1 PUSH1 0x0 PUSH1 0x60 DUP5 DUP7 SUB SLT ISZERO PUSH2 0xB95 JUMPI PUSH2 0xB94 PUSH2 0xA2C JUMP JUMPDEST JUMPDEST PUSH1 0x0 DUP5 ADD CALLDATALOAD PUSH8 0xFFFFFFFFFFFFFFFF DUP2 GT ISZERO PUSH2 0xBB3 JUMPI PUSH2 0xBB2 PUSH2 0xA31 JUMP JUMPDEST JUMPDEST PUSH2 0xBBF DUP7 DUP3 DUP8 ADD PUSH2 0xB4E JUMP JUMPDEST SWAP4 POP POP PUSH1 0x20 DUP5 ADD CALLDATALOAD PUSH8 0xFFFFFFFFFFFFFFFF DUP2 GT ISZERO PUSH2 0xBE0 JUMPI PUSH2 0xBDF PUSH2 0xA31 JUMP JUMPDEST JUMPDEST PUSH2 0xBEC DUP7 DUP3 DUP8 ADD PUSH2 0xB4E JUMP JUMPDEST SWAP3 POP POP PUSH1 0x40 DUP5 ADD CALLDATALOAD PUSH8 0xFFFFFFFFFFFFFFFF DUP2 GT ISZERO PUSH2 0xC0D JUMPI PUSH2 0xC0C PUSH2 0xA31 JUMP JUMPDEST JUMPDEST PUSH2 0xC19 DUP7 DUP3 DUP8 ADD PUSH2 0xB4E JUMP JUMPDEST SWAP2 POP POP SWAP3 POP SWAP3 POP SWAP3 JUMP JUMPDEST PUSH1 0x0 DUP2 MLOAD SWAP1 POP SWAP2 SWAP1 POP JUMP JUMPDEST PUSH1 0x0 DUP3 DUP3 MSTORE PUSH1 0x20 DUP3 ADD SWAP1 POP SWAP3 SWAP2 POP POP JUMP JUMPDEST PUSH1 0x0 DUP2 SWAP1 POP PUSH1 0x20 DUP3 ADD SWAP1 POP SWAP2 SWAP1 POP JUMP JUMPDEST PUSH1 0x0 DUP2 MLOAD SWAP1 POP SWAP2 SWAP1 POP JUMP JUMPDEST PUSH1 0x0 DUP3 DUP3 MSTORE PUSH1 0x20 DUP3 ADD SWAP1 POP SWAP3 SWAP2 POP POP JUMP JUMPDEST PUSH1 0x0 JUMPDEST DUP4 DUP2 LT ISZERO PUSH2 0xC89 JUMPI DUP1 DUP3 ADD MLOAD DUP2 DUP5 ADD MSTORE PUSH1 0x20 DUP2 ADD SWAP1 POP PUSH2 0xC6E JUMP JUMPDEST PUSH1 0x0 DUP5 DUP5 ADD MSTORE POP POP POP POP JUMP JUMPDEST PUSH1 0x0 PUSH2 0xCA0 DUP3 PUSH2 0xC4F JUMP JUMPDEST PUSH2 0xCAA DUP2 DUP6 PUSH2 0xC5A JUMP JUMPDEST SWAP4 POP PUSH2 0xCBA DUP2 DUP6 PUSH1 0x20 DUP7 ADD PUSH2 0xC6B JUMP JUMPDEST PUSH2 0xCC3 DUP2 PUSH2 0xA40 JUMP JUMPDEST DUP5 ADD SWAP2 POP POP SWAP3 SWAP2 POP POP JUMP JUMPDEST PUSH1 0x0 PUSH20 0xFFFFFFFFFFFFFFFFFFFFFFFFFFFFFFFFFFFFFFFF DUP3 AND SWAP1 POP SWAP2 SWAP1 POP JUMP JUMPDEST PUSH1 0x0 PUSH2 0xCF9 DUP3 PUSH2 0xCCE JUMP JUMPDEST SWAP1 POP SWAP2 SWAP1 POP JUMP JUMPDEST PUSH2 0xD09 DUP2 PUSH2 0xCEE JUMP JUMPDEST DUP3 MSTORE POP POP JUMP JUMPDEST PUSH1 0x0 PUSH1 0x80 DUP4 ADD PUSH1 0x0 DUP4 ADD MLOAD DUP5 DUP3 SUB PUSH1 0x0 DUP7 ADD MSTORE PUSH2 0xD2C DUP3 DUP3 PUSH2 0xC95 JUMP JUMPDEST SWAP2 POP POP PUSH1 0x20 DUP4 ADD MLOAD DUP5 DUP3 SUB PUSH1 0x20 DUP7 ADD MSTORE PUSH2 0xD46 DUP3 DUP3 PUSH2 0xC95 JUMP JUMPDEST SWAP2 POP POP PUSH1 0x40 DUP4 ADD MLOAD DUP5 DUP3 SUB PUSH1 0x40 DUP7 ADD MSTORE PUSH2 0xD60 DUP3 DUP3 PUSH2 0xC95 JUMP JUMPDEST SWAP2 POP POP PUSH1 0x60 DUP4 ADD MLOAD PUSH2 0xD75 PUSH1 0x60 DUP7 ADD DUP3 PUSH2 0xD00 JUMP JUMPDEST POP DUP1 SWAP2 POP POP SWAP3 SWAP2 POP POP JUMP JUMPDEST PUSH1 0x0 PUSH2 0xD8C DUP4 DUP4 PUSH2 0xD0F JUMP JUMPDEST SWAP1 POP SWAP3 SWAP2 POP POP JUMP JUMPDEST PUSH1 0x0 PUSH1 0x20 DUP3 ADD SWAP1 POP SWAP2 SWAP1 POP JUMP JUMPDEST PUSH1 0x0 PUSH2 0xDAC DUP3 PUSH2 0xC23 JUMP JUMPDEST PUSH2 0xDB6 DUP2 DUP6 PUSH2 0xC2E JUMP JUMPDEST SWAP4 POP DUP4 PUSH1 0x20 DUP3 MUL DUP6 ADD PUSH2 0xDC8 DUP6 PUSH2 0xC3F JUMP JUMPDEST DUP1 PUSH1 0x0 JUMPDEST DUP6 DUP2 LT ISZERO PUSH2 0xE04 JUMPI DUP5 DUP5 SUB DUP10 MSTORE DUP2 MLOAD PUSH2 0xDE5 DUP6 DUP3 PUSH2 0xD80 JUMP JUMPDEST SWAP5 POP PUSH2 0xDF0 DUP4 PUSH2 0xD94 JUMP JUMPDEST SWAP3 POP PUSH1 0x20 DUP11 ADD SWAP10 POP POP PUSH1 0x1 DUP2 ADD SWAP1 POP PUSH2 0xDCC JUMP JUMPDEST POP DUP3 SWAP8 POP DUP8 SWAP6 POP POP POP POP POP POP SWAP3 SWAP2 POP POP JUMP JUMPDEST PUSH1 0x0 PUSH1 0x20 DUP3 ADD SWAP1 POP DUP2 DUP2 SUB PUSH1 0x0 DUP4 ADD MSTORE PUSH2 0xE30 DUP2 DUP5 PUSH2 0xDA1 JUMP JUMPDEST SWAP1 POP SWAP3 SWAP2 POP POP JUMP JUMPDEST PUSH1 0x0 DUP1 PUSH1 0x40 DUP4 DUP6 SUB SLT ISZERO PUSH2 0xE4F JUMPI PUSH2 0xE4E PUSH2 0xA2C JUMP JUMPDEST JUMPDEST PUSH1 0x0 DUP4 ADD CALLDATALOAD PUSH8 0xFFFFFFFFFFFFFFFF DUP2 GT ISZERO PUSH2 0xE6D JUMPI PUSH2 0xE6C PUSH2 0xA31 JUMP JUMPDEST JUMPDEST PUSH2 0xE79 DUP6 DUP3 DUP7 ADD PUSH2 0xB4E JUMP JUMPDEST SWAP3 POP POP PUSH1 0x20 DUP4 ADD CALLDATALOAD PUSH8 0xFFFFFFFFFFFFFFFF DUP2 GT ISZERO PUSH2 0xE9A JUMPI PUSH2 0xE99 PUSH2 0xA31 JUMP JUMPDEST JUMPDEST PUSH2 0xEA6 DUP6 DUP3 DUP7 ADD PUSH2 0xB4E JUMP JUMPDEST SWAP2 POP POP SWAP3 POP SWAP3 SWAP1 POP JUMP JUMPDEST PUSH1 0x0 PUSH1 0x20 DUP3 DUP5 SUB SLT ISZERO PUSH2 0xEC6 JUMPI PUSH2 0xEC5 PUSH2 0xA2C JUMP JUMPDEST JUMPDEST PUSH1 0x0 DUP3 ADD CALLDATALOAD PUSH8 0xFFFFFFFFFFFFFFFF DUP2 GT ISZERO PUSH2 0xEE4 JUMPI PUSH2 0xEE3 PUSH2 0xA31 JUMP JUMPDEST JUMPDEST PUSH2 0xEF0 DUP5 DUP3 DUP6 ADD PUSH2 0xB4E JUMP JUMPDEST SWAP2 POP POP SWAP3 SWAP2 POP POP JUMP JUMPDEST PUSH1 0x0 PUSH1 0x80 DUP4 ADD PUSH1 0x0 DUP4 ADD MLOAD DUP5 DUP3 SUB PUSH1 0x0 DUP7 ADD MSTORE PUSH2 0xF16 DUP3 DUP3 PUSH2 0xC95 JUMP JUMPDEST SWAP2 POP POP PUSH1 0x20 DUP4 ADD MLOAD DUP5 DUP3 SUB PUSH1 0x20 DUP7 ADD MSTORE PUSH2 0xF30 DUP3 DUP3 PUSH2 0xC95 JUMP JUMPDEST SWAP2 POP POP PUSH1 0x40 DUP4 ADD MLOAD DUP5 DUP3 SUB PUSH1 0x40 DUP7 ADD MSTORE PUSH2 0xF4A DUP3 DUP3 PUSH2 0xC95 JUMP JUMPDEST SWAP2 POP POP PUSH1 0x60 DUP4 ADD MLOAD PUSH2 0xF5F PUSH1 0x60 DUP7 ADD DUP3 PUSH2 0xD00 JUMP JUMPDEST POP DUP1 SWAP2 POP POP SWAP3 SWAP2 POP POP JUMP JUMPDEST PUSH1 0x0 PUSH1 0x20 DUP3 ADD SWAP1 POP DUP2 DUP2 SUB PUSH1 0x0 DUP4 ADD MSTORE PUSH2 0xF84 DUP2 DUP5 PUSH2 0xEF9 JUMP JUMPDEST SWAP1 POP SWAP3 SWAP2 POP POP JUMP JUMPDEST PUSH1 0x0 DUP2 SWAP1 POP SWAP3 SWAP2 POP POP JUMP JUMPDEST PUSH1 0x0 PUSH2 0xFA2 DUP3 PUSH2 0xC4F JUMP JUMPDEST PUSH2 0xFAC DUP2 DUP6 PUSH2 0xF8C JUMP JUMPDEST SWAP4 POP PUSH2 0xFBC DUP2 DUP6 PUSH1 0x20 DUP7 ADD PUSH2 0xC6B JUMP JUMPDEST DUP1 DUP5 ADD SWAP2 POP POP SWAP3 SWAP2 POP POP JUMP JUMPDEST PUSH1 0x0 PUSH2 0xFD4 DUP3 DUP5 PUSH2 0xF97 JUMP JUMPDEST SWAP2 POP DUP2 SWAP1 POP SWAP3 SWAP2 POP POP JUMP JUMPDEST PUSH32 0x4E487B7100000000000000000000000000000000000000000000000000000000 PUSH1 0x0 MSTORE PUSH1 0x22 PUSH1 0x4 MSTORE PUSH1 0x24 PUSH1 0x0 REVERT JUMPDEST PUSH1 0x0 PUSH1 0x2 DUP3 DIV SWAP1 POP PUSH1 0x1 DUP3 AND DUP1 PUSH2 0x1026 JUMPI PUSH1 0x7F DUP3 AND SWAP2 POP JUMPDEST PUSH1 0x20 DUP3 LT DUP2 SUB PUSH2 0x1039 JUMPI PUSH2 0x1038 PUSH2 0xFDF JUMP JUMPDEST JUMPDEST POP SWAP2 SWAP1 POP JUMP JUMPDEST PUSH1 0x0 DUP3 DUP3 MSTORE PUSH1 0x20 DUP3 ADD SWAP1 POP SWAP3 SWAP2 POP POP JUMP JUMPDEST PUSH32 0x547261636B696E67204944206578697374730000000000000000000000000000 PUSH1 0x0 DUP3 ADD MSTORE POP JUMP JUMPDEST PUSH1 0x0 PUSH2 0x1086 PUSH1 0x12 DUP4 PUSH2 0x103F JUMP JUMPDEST SWAP2 POP PUSH2 0x1091 DUP3 PUSH2 0x1050 JUMP JUMPDEST PUSH1 0x20 DUP3 ADD SWAP1 POP SWAP2 SWAP1 POP JUMP JUMPDEST PUSH1 0x0 PUSH1 0x20 DUP3 ADD SWAP1 POP DUP2 DUP2 SUB PUSH1 0x0 DUP4 ADD MSTORE PUSH2 0x10B5 DUP2 PUSH2 0x1079 JUMP JUMPDEST SWAP1 POP SWAP2 SWAP1 POP JUMP JUMPDEST PUSH1 0x0 DUP2 SWAP1 POP DUP2 PUSH1 0x0 MSTORE PUSH1 0x20 PUSH1 0x0 KECCAK256 SWAP1 POP SWAP2 SWAP1 POP JUMP JUMPDEST PUSH1 0x0 PUSH1 0x20 PUSH1 0x1F DUP4 ADD DIV SWAP1 POP SWAP2 SWAP1 POP JUMP JUMPDEST PUSH1 0x0 DUP3 DUP3 SHL SWAP1 POP SWAP3 SWAP2 POP POP JUMP JUMPDEST PUSH1 0x0 PUSH1 0x8 DUP4 MUL PUSH2 0x111E PUSH32 0xFFFFFFFFFFFFFFFFFFFFFFFFFFFFFFFFFFFFFFFFFFFFFFFFFFFFFFFFFFFFFFFF DUP3 PUSH2 0x10E1 JUMP JUMPDEST PUSH2 0x1128 DUP7 DUP4 PUSH2 0x10E1 JUMP JUMPDEST SWAP6 POP DUP1 NOT DUP5 AND SWAP4 POP DUP1 DUP7 AND DUP5 OR SWAP3 POP POP POP SWAP4 SWAP3 POP POP POP JUMP JUMPDEST PUSH1 0x0 DUP2 SWAP1 POP SWAP2 SWAP1 POP JUMP JUMPDEST PUSH1 0x0 DUP2 SWAP1 POP SWAP2 SWAP1 POP JUMP JUMPDEST PUSH1 0x0 PUSH2 0x116F PUSH2 0x116A PUSH2 0x1165 DUP5 PUSH2 0x1140 JUMP JUMPDEST PUSH2 0x114A JUMP JUMPDEST PUSH2 0x1140 JUMP JUMPDEST SWAP1 POP SWAP2 SWAP1 POP JUMP JUMPDEST PUSH1 0x0 DUP2 SWAP1 POP SWAP2 SWAP1 POP JUMP JUMPDEST PUSH2 0x1189 DUP4 PUSH2 0x1154 JUMP JUMPDEST PUSH2 0x119D PUSH2 0x1195 DUP3 PUSH2 0x1176 JUMP JUMPDEST DUP5 DUP5 SLOAD PUSH2 0x10EE JUMP JUMPDEST DUP3 SSTORE POP POP POP POP JUMP JUMPDEST PUSH1 0x0 SWAP1 JUMP JUMPDEST PUSH2 0x11B2 PUSH2 0x11A5 JUMP JUMPDEST PUSH2 0x11BD DUP2 DUP5 DUP5 PUSH2 0x1180 JUMP JUMPDEST POP POP POP JUMP JUMPDEST JUMPDEST DUP2 DUP2 LT ISZERO PUSH2 0x11E1 JUMPI PUSH2 0x11D6 PUSH1 0x0 DUP3 PUSH2 0x11AA JUMP JUMPDEST PUSH1 0x1 DUP2 ADD SWAP1 POP PUSH2 0x11C3 JUMP JUMPDEST POP POP JUMP JUMPDEST PUSH1 0x1F DUP3 GT ISZERO PUSH2 0x1226 JUMPI PUSH2 0x11F7 DUP2 PUSH2 0x10BC JUMP JUMPDEST PUSH2 0x1200 DUP5 PUSH2 0x10D1 JUMP JUMPDEST DUP2 ADD PUSH1 0x20 DUP6 LT ISZERO PUSH2 0x120F JUMPI DUP2 SWAP1 POP JUMPDEST PUSH2 0x1223 PUSH2 0x121B DUP6 PUSH2 0x10D1 JUMP JUMPDEST DUP4 ADD DUP3 PUSH2 0x11C2 JUMP JUMPDEST POP POP JUMPDEST POP POP POP JUMP JUMPDEST PUSH1 0x0 DUP3 DUP3 SHR SWAP1 POP SWAP3 SWAP2 POP POP JUMP JUMPDEST PUSH1 0x0 PUSH2 0x1249 PUSH1 0x0 NOT DUP5 PUSH1 0x8 MUL PUSH2 0x122B JUMP JUMPDEST NOT DUP1 DUP4 AND SWAP2 POP POP SWAP3 SWAP2 POP POP JUMP JUMPDEST PUSH1 0x0 PUSH2 0x1262 DUP4 DUP4 PUSH2 0x1238 JUMP JUMPDEST SWAP2 POP DUP3 PUSH1 0x2 MUL DUP3 OR SWAP1 POP SWAP3 SWAP2 POP POP JUMP JUMPDEST PUSH2 0x127B DUP3 PUSH2 0xC4F JUMP JUMPDEST PUSH8 0xFFFFFFFFFFFFFFFF DUP2 GT ISZERO PUSH2 0x1294 JUMPI PUSH2 0x1293 PUSH2 0xA51 JUMP JUMPDEST JUMPDEST PUSH2 0x129E DUP3 SLOAD PUSH2 0x100E JUMP JUMPDEST PUSH2 0x12A9 DUP3 DUP3 DUP6 PUSH2 0x11E5 JUMP JUMPDEST PUSH1 0x0 PUSH1 0x20 SWAP1 POP PUSH1 0x1F DUP4 GT PUSH1 0x1 DUP2 EQ PUSH2 0x12DC JUMPI PUSH1 0x0 DUP5 ISZERO PUSH2 0x12CA JUMPI DUP3 DUP8 ADD MLOAD SWAP1 POP JUMPDEST PUSH2 0x12D4 DUP6 DUP3 PUSH2 0x1256 JUMP JUMPDEST DUP7 SSTORE POP PUSH2 0x133C JUMP JUMPDEST PUSH1 0x1F NOT DUP5 AND PUSH2 0x12EA DUP7 PUSH2 0x10BC JUMP JUMPDEST PUSH1 0x0 JUMPDEST DUP3 DUP2 LT ISZERO PUSH2 0x1312 JUMPI DUP5 DUP10 ADD MLOAD DUP3 SSTORE PUSH1 0x1 DUP3 ADD SWAP2 POP PUSH1 0x20 DUP6 ADD SWAP5 POP PUSH1 0x20 DUP2 ADD SWAP1 POP PUSH2 0x12ED JUMP JUMPDEST DUP7 DUP4 LT ISZERO PUSH2 0x132F JUMPI DUP5 DUP10 ADD MLOAD PUSH2 0x132B PUSH1 0x1F DUP10 AND DUP3 PUSH2 0x1238 JUMP JUMPDEST DUP4 SSTORE POP JUMPDEST PUSH1 0x1 PUSH1 0x2 DUP9 MUL ADD DUP9 SSTORE POP POP POP JUMPDEST POP POP POP POP POP POP JUMP JUMPDEST PUSH1 0x0 PUSH2 0x134F DUP3 PUSH2 0xC4F JUMP JUMPDEST PUSH2 0x1359 DUP2 DUP6 PUSH2 0x103F JUMP JUMPDEST SWAP4 POP PUSH2 0x1369 DUP2 DUP6 PUSH1 0x20 DUP7 ADD PUSH2 0xC6B JUMP JUMPDEST PUSH2 0x1372 DUP2 PUSH2 0xA40 JUMP JUMPDEST DUP5 ADD SWAP2 POP POP SWAP3 SWAP2 POP POP JUMP JUMPDEST PUSH1 0x0 PUSH1 0x60 DUP3 ADD SWAP1 POP DUP2 DUP2 SUB PUSH1 0x0 DUP4 ADD MSTORE PUSH2 0x1397 DUP2 DUP7 PUSH2 0x1344 JUMP JUMPDEST SWAP1 POP DUP2 DUP2 SUB PUSH1 0x20 DUP4 ADD MSTORE PUSH2 0x13AB DUP2 DUP6 PUSH2 0x1344 JUMP JUMPDEST SWAP1 POP DUP2 DUP2 SUB PUSH1 0x40 DUP4 ADD MSTORE PUSH2 0x13BF DUP2 DUP5 PUSH2 0x1344 JUMP JUMPDEST SWAP1 POP SWAP5 SWAP4 POP POP POP POP JUMP JUMPDEST PUSH32 0x4E487B7100000000000000000000000000000000000000000000000000000000 PUSH1 0x0 MSTORE PUSH1 0x32 PUSH1 0x4 MSTORE PUSH1 0x24 PUSH1 0x0 REVERT JUMPDEST PUSH1 0x0 DUP2 SLOAD PUSH2 0x1405 DUP2 PUSH2 0x100E JUMP JUMPDEST PUSH2 0x140F DUP2 DUP7 PUSH2 0xF8C JUMP JUMPDEST SWAP5 POP PUSH1 0x1 DUP3 AND PUSH1 0x0 DUP2 EQ PUSH2 0x142A JUMPI PUSH1 0x1 DUP2 EQ PUSH2 0x143F JUMPI PUSH2 0x1472 JUMP JUMPDEST PUSH1 0xFF NOT DUP4 AND DUP7 MSTORE DUP2 ISZERO ISZERO DUP3 MUL DUP7 ADD SWAP4 POP PUSH2 0x1472 JUMP JUMPDEST PUSH2 0x1448 DUP6 PUSH2 0x10BC JUMP JUMPDEST PUSH1 0x0 JUMPDEST DUP4 DUP2 LT ISZERO PUSH2 0x146A JUMPI DUP2 SLOAD DUP2 DUP10 ADD MSTORE PUSH1 0x1 DUP3 ADD SWAP2 POP PUSH1 0x20 DUP2 ADD SWAP1 POP PUSH2 0x144B JUMP JUMPDEST DUP4 DUP9 ADD SWAP6 POP POP POP JUMPDEST POP POP POP SWAP3 SWAP2 POP POP JUMP JUMPDEST PUSH1 0x0 PUSH2 0x1487 DUP3 DUP5 PUSH2 0x13F8 JUMP JUMPDEST SWAP2 POP DUP2 SWAP1 POP SWAP3 SWAP2 POP POP JUMP JUMPDEST PUSH32 0x547261636B696E6720494420646F6573206E6F74206578697374000000000000 PUSH1 0x0 DUP3 ADD MSTORE POP JUMP JUMPDEST PUSH1 0x0 PUSH2 0x14C8 PUSH1 0x1A DUP4 PUSH2 0x103F JUMP JUMPDEST SWAP2 POP PUSH2 0x14D3 DUP3 PUSH2 0x1492 JUMP JUMPDEST PUSH1 0x20 DUP3 ADD SWAP1 POP SWAP2 SWAP1 POP JUMP JUMPDEST PUSH1 0x0 PUSH1 0x20 DUP3 ADD SWAP1 POP DUP2 DUP2 SUB PUSH1 0x0 DUP4 ADD MSTORE PUSH2 0x14F7 DUP2 PUSH2 0x14BB JUMP JUMPDEST SWAP1 POP SWAP2 SWAP1 POP JUMP JUMPDEST PUSH32 0x4F6E6C79206F776E65722063616E207570646174650000000000000000000000 PUSH1 0x0 DUP3 ADD MSTORE POP JUMP JUMPDEST PUSH1 0x0 PUSH2 0x1534 PUSH1 0x15 DUP4 PUSH2 0x103F JUMP JUMPDEST SWAP2 POP PUSH2 0x153F DUP3 PUSH2 0x14FE JUMP JUMPDEST PUSH1 0x20 DUP3 ADD SWAP1 POP SWAP2 SWAP1 POP JUMP JUMPDEST PUSH1 0x0 PUSH1 0x20 DUP3 ADD SWAP1 POP DUP2 DUP2 SUB PUSH1 0x0 DUP4 ADD MSTORE PUSH2 0x1563 DUP2 PUSH2 0x1527 JUMP JUMPDEST SWAP1 POP SWAP2 SWAP1 POP JUMP JUMPDEST PUSH1 0x0 PUSH1 0x40 DUP3 ADD SWAP1 POP DUP2 DUP2 SUB PUSH1 0x0 DUP4 ADD MSTORE PUSH2 0x1584 DUP2 DUP6 PUSH2 0x1344 JUMP JUMPDEST SWAP1 POP DUP2 DUP2 SUB PUSH1 0x20 DUP4 ADD MSTORE PUSH2 0x1598 DUP2 DUP5 PUSH2 0x1344 JUMP JUMPDEST SWAP1 POP SWAP4 SWAP3 POP POP POP JUMP JUMPDEST PUSH32 0x547261636B696E67204944206E6F7420666F756E640000000000000000000000 PUSH1 0x0 DUP3 ADD MSTORE POP JUMP JUMPDEST PUSH1 0x0 PUSH2 0x15D7 PUSH1 0x15 DUP4 PUSH2 0x103F JUMP JUMPDEST SWAP2 POP PUSH2 0x15E2 DUP3 PUSH2 0x15A1 JUMP JUMPDEST PUSH1 0x20 DUP3 ADD SWAP1 POP SWAP2 SWAP1 POP JUMP JUMPDEST PUSH1 0x0 PUSH1 0x20 DUP3 ADD SWAP1 POP DUP2 DUP2 SUB PUSH1 0x0 DUP4 ADD MSTORE PUSH2 0x1606 DUP2 PUSH2 0x15CA JUMP JUMPDEST SWAP1 POP SWAP2 SWAP1 POP JUMP INVALID LOG2 PUSH5 0x6970667358 0x22 SLT KECCAK256 PUSH30 0x5083466E5B7014E8ECEE1E0EA822C3521C96139777DC77672F8A1752EE87 GAS PUSH5 0x736F6C6343 STOP ADDMOD SHR STOP CALLER "},"methodIdentifiers":{"addShipment(string,string,string)":"2c601172","getAllShipments()":"494dad6c","getShipment(string)":"da34f3d5","updateShipmentStatus(string,string)":"7fee6aa9"}}}}}