{
  "_format": "hh-sol-artifact-1",
  "contractName": "Tracking",
  "sourceName": "contracts/Tracking.sol",
  "abi": [
    {
      "anonymous": false,
      "inputs": [
        {
          "indexed": false,
          "internalType": "string",
          "name": "trackingNumber",
          "type": "string"
        },
        {
          "indexed": false,
          "internalType": "string",
          "name": "date",
          "type": "string"
        },
        {
          "indexed": false,
          "internalType": "string",
          "name": "status",
          "type": "string"
        },
        {
          "indexed": true,
          "internalType": "address",
          "name": "owner",
          "type": "address"
        }
      ],
      "name": "ShipmentAdded",
      "type": "event"
    },
    {
      "anonymous": false,
      "inputs": [
        {
          "indexed": false,
          "internalType": "string",
          "name": "trackingNumber",
          "type": "string"
        },
        {
          "indexed": false,
          "internalType": "string",
          "name": "newStatus",
          "type": "string"
        }
      ],
      "name": "ShipmentStatusUpdated",
      "type": "event"
    },
    {
      "inputs": [
        {
          "internalType": "string",
          "name": "_trackingNumber",
          "type": "string"
        },
        {
          "internalType": "string",
          "name": "_date",
          "type": "string"
        }
      ],
      "name": "addShipment",
      "outputs": [],
      "stateMutability": "nonpayable",
      "type": "function"
    },
    {
      "inputs": [],
      "name": "getAllShipments",
      "outputs": [
        {
          "components": [
            {
              "internalType": "string",
              "name": "trackingNumber",
              "type": "string"
            },
            {
              "internalType": "string",
              "name": "date",
              "type": "string"
            },
            {
              "internalType": "string",
              "name": "status",
              "type": "string"
            },
            {
              "internalType": "address",
              "name": "owner",
              "type": "address"
            }
          ],
          "internalType": "struct Tracking.Shipment[]",
          "name": "",
          "type": "tuple[]"
        }
      ],
      "stateMutability": "view",
      "type": "function"
    },
    {
      "inputs": [
        {
          "internalType": "string",
          "name": "_trackingNumber",
          "type": "string"
        }
      ],
      "name": "getShipment",
      "outputs": [
        {
          "internalType": "string",
          "name": "",
          "type": "string"
        },
        {
          "internalType": "string",
          "name": "",
          "type": "string"
        },
        {
          "internalType": "string",
          "name": "",
          "type": "string"
        },
        {
          "internalType": "address",
          "name": "",
          "type": "address"
        }
      ],
      "stateMutability": "view",
      "type": "function"
    },
    {
      "inputs": [
        {
          "internalType": "string",
          "name": "_trackingNumber",
          "type": "string"
        },
        {
          "internalType": "string",
          "name": "_newStatus",
          "type": "string"
        }
      ],
      "name": "updateShipmentStatus",
      "outputs": [],
      "stateMutability": "nonpayable",
      "type": "function"
    }
  ],
  "bytecode": "0x6080604052348015600f57600080fd5b5061150a8061001f6000396000f3fe608060405234801561001057600080fd5b506004361061004c5760003560e01c8063494dad6c146100515780637fee6aa91461006f578063d27326351461008b578063da34f3d5146100a7575b600080fd5b6100596100da565b6040516100669190610bf1565b60405180910390f35b61008960048036038101906100849190610d5c565b610345565b005b6100a560048036038101906100a09190610d5c565b6104f8565b005b6100c160048036038101906100bc9190610dd4565b6106f7565b6040516100d19493929190610e76565b60405180910390f35b60606000805480602002602001604051908101604052809291908181526020016000905b8282101561033c578382906000526020600020906004020160405180608001604052908160008201805461013190610eff565b80601f016020809104026020016040519081016040528092919081815260200182805461015d90610eff565b80156101aa5780601f1061017f576101008083540402835291602001916101aa565b820191906000526020600020905b81548152906001019060200180831161018d57829003601f168201915b505050505081526020016001820180546101c390610eff565b80601f01602080910402602001604051908101604052809291908181526020018280546101ef90610eff565b801561023c5780601f106102115761010080835404028352916020019161023c565b820191906000526020600020905b81548152906001019060200180831161021f57829003601f168201915b5050505050815260200160028201805461025590610eff565b80601f016020809104026020016040519081016040528092919081815260200182805461028190610eff565b80156102ce5780601f106102a3576101008083540402835291602001916102ce565b820191906000526020600020905b8154815290600101906020018083116102b157829003601f168201915b505050505081526020016003820160009054906101000a900473ffffffffffffffffffffffffffffffffffffffff1673ffffffffffffffffffffffffffffffffffffffff1673ffffffffffffffffffffffffffffffffffffffff1681525050815260200190600101906100fe565b50505050905090565b60006001836040516103579190610f6c565b908152602001604051809103902054036103a6576040517f08c379a000000000000000000000000000000000000000000000000000000000815260040161039d90610fcf565b60405180910390fd5b6000600180846040516103b99190610f6c565b9081526020016040518091039020546103d29190611028565b90503373ffffffffffffffffffffffffffffffffffffffff16600082815481106103ff576103fe61105c565b5b906000526020600020906004020160030160009054906101000a900473ffffffffffffffffffffffffffffffffffffffff1673ffffffffffffffffffffffffffffffffffffffff1614610487576040517f08c379a000000000000000000000000000000000000000000000000000000000815260040161047e906110fd565b60405180910390fd5b816000828154811061049c5761049b61105c565b5b906000526020600020906004020160020190816104b991906112c9565b507f34560c1e26a6b114f694931e8e4d11a0a5f68ed24c633380f95fd1baf235643983836040516104eb92919061139b565b60405180910390a1505050565b600060018360405161050a9190610f6c565b90815260200160405180910390205414610559576040517f08c379a00000000000000000000000000000000000000000000000000000000081526004016105509061141e565b60405180910390fd5b600060405180608001604052808481526020018381526020016040518060400160405280600781526020017f50656e64696e670000000000000000000000000000000000000000000000000081525081526020013373ffffffffffffffffffffffffffffffffffffffff168152509080600181540180825580915050600190039060005260206000209060040201600090919091909150600082015181600001908161060591906112c9565b50602082015181600101908161061b91906112c9565b50604082015181600201908161063191906112c9565b5060608201518160030160006101000a81548173ffffffffffffffffffffffffffffffffffffffff021916908373ffffffffffffffffffffffffffffffffffffffff16021790555050506000805490506001836040516106919190610f6c565b9081526020016040518091039020819055503373ffffffffffffffffffffffffffffffffffffffff167f03966a435a0f781724ea99107cdb6e85607548ed192efafb32568bd25fc72c4283836040516106eb92919061148a565b60405180910390a25050565b606080606060008060018660405161070f9190610f6c565b9081526020016040518091039020540361075e576040517f08c379a000000000000000000000000000000000000000000000000000000000815260040161075590610fcf565b60405180910390fd5b6000600180876040516107719190610f6c565b90815260200160405180910390205461078a9190611028565b905060008082815481106107a1576107a061105c565b5b90600052602060002090600402016040518060800160405290816000820180546107ca90610eff565b80601f01602080910402602001604051908101604052809291908181526020018280546107f690610eff565b80156108435780601f1061081857610100808354040283529160200191610843565b820191906000526020600020905b81548152906001019060200180831161082657829003601f168201915b5050505050815260200160018201805461085c90610eff565b80601f016020809104026020016040519081016040528092919081815260200182805461088890610eff565b80156108d55780601f106108aa576101008083540402835291602001916108d5565b820191906000526020600020905b8154815290600101906020018083116108b857829003601f168201915b505050505081526020016002820180546108ee90610eff565b80601f016020809104026020016040519081016040528092919081815260200182805461091a90610eff565b80156109675780601f1061093c57610100808354040283529160200191610967565b820191906000526020600020905b81548152906001019060200180831161094a57829003601f168201915b505050505081526020016003820160009054906101000a900473ffffffffffffffffffffffffffffffffffffffff1673ffffffffffffffffffffffffffffffffffffffff1673ffffffffffffffffffffffffffffffffffffffff168152505090508060000151816020015182604001518360600151955095509550955050509193509193565b600081519050919050565b600082825260208201905092915050565b6000819050602082019050919050565b600081519050919050565b600082825260208201905092915050565b60005b83811015610a53578082015181840152602081019050610a38565b60008484015250505050565b6000601f19601f8301169050919050565b6000610a7b82610a19565b610a858185610a24565b9350610a95818560208601610a35565b610a9e81610a5f565b840191505092915050565b600073ffffffffffffffffffffffffffffffffffffffff82169050919050565b6000610ad482610aa9565b9050919050565b610ae481610ac9565b82525050565b60006080830160008301518482036000860152610b078282610a70565b91505060208301518482036020860152610b218282610a70565b91505060408301518482036040860152610b3b8282610a70565b9150506060830151610b506060860182610adb565b508091505092915050565b6000610b678383610aea565b905092915050565b6000602082019050919050565b6000610b87826109ed565b610b9181856109f8565b935083602082028501610ba385610a09565b8060005b85811015610bdf5784840389528151610bc08582610b5b565b9450610bcb83610b6f565b925060208a01995050600181019050610ba7565b50829750879550505050505092915050565b60006020820190508181036000830152610c0b8184610b7c565b905092915050565b6000604051905090565b600080fd5b600080fd5b600080fd5b600080fd5b7f4e487b7100000000000000000000000000000000000000000000000000000000600052604160045260246000fd5b610c6982610a5f565b810181811067ffffffffffffffff82111715610c8857610c87610c31565b5b80604052505050565b6000610c9b610c13565b9050610ca78282610c60565b919050565b600067ffffffffffffffff821115610cc757610cc6610c31565b5b610cd082610a5f565b9050602081019050919050565b82818337600083830152505050565b6000610cff610cfa84610cac565b610c91565b905082815260208101848484011115610d1b57610d1a610c2c565b5b610d26848285610cdd565b509392505050565b600082601f830112610d4357610d42610c27565b5b8135610d53848260208601610cec565b91505092915050565b60008060408385031215610d7357610d72610c1d565b5b600083013567ffffffffffffffff811115610d9157610d90610c22565b5b610d9d85828601610d2e565b925050602083013567ffffffffffffffff811115610dbe57610dbd610c22565b5b610dca85828601610d2e565b9150509250929050565b600060208284031215610dea57610de9610c1d565b5b600082013567ffffffffffffffff811115610e0857610e07610c22565b5b610e1484828501610d2e565b91505092915050565b600082825260208201905092915050565b6000610e3982610a19565b610e438185610e1d565b9350610e53818560208601610a35565b610e5c81610a5f565b840191505092915050565b610e7081610ac9565b82525050565b60006080820190508181036000830152610e908187610e2e565b90508181036020830152610ea48186610e2e565b90508181036040830152610eb88185610e2e565b9050610ec76060830184610e67565b95945050505050565b7f4e487b7100000000000000000000000000000000000000000000000000000000600052602260045260246000fd5b60006002820490506001821680610f1757607f821691505b602082108103610f2a57610f29610ed0565b5b50919050565b600081905092915050565b6000610f4682610a19565b610f508185610f30565b9350610f60818560208601610a35565b80840191505092915050565b6000610f788284610f3b565b915081905092915050565b7f547261636b696e6720494420646f6573206e6f74206578697374000000000000600082015250565b6000610fb9601a83610e1d565b9150610fc482610f83565b602082019050919050565b60006020820190508181036000830152610fe881610fac565b9050919050565b6000819050919050565b7f4e487b7100000000000000000000000000000000000000000000000000000000600052601160045260246000fd5b600061103382610fef565b915061103e83610fef565b925082820390508181111561105657611055610ff9565b5b92915050565b7f4e487b7100000000000000000000000000000000000000000000000000000000600052603260045260246000fd5b7f4f6e6c7920746865206f776e65722063616e207570646174652074686520737460008201527f6174757300000000000000000000000000000000000000000000000000000000602082015250565b60006110e7602483610e1d565b91506110f28261108b565b604082019050919050565b60006020820190508181036000830152611116816110da565b9050919050565b60008190508160005260206000209050919050565b60006020601f8301049050919050565b600082821b905092915050565b60006008830261117f7fffffffffffffffffffffffffffffffffffffffffffffffffffffffffffffffff82611142565b6111898683611142565b95508019841693508086168417925050509392505050565b6000819050919050565b60006111c66111c16111bc84610fef565b6111a1565b610fef565b9050919050565b6000819050919050565b6111e0836111ab565b6111f46111ec826111cd565b84845461114f565b825550505050565b600090565b6112096111fc565b6112148184846111d7565b505050565b5b818110156112385761122d600082611201565b60018101905061121a565b5050565b601f82111561127d5761124e8161111d565b61125784611132565b81016020851015611266578190505b61127a61127285611132565b830182611219565b50505b505050565b600082821c905092915050565b60006112a060001984600802611282565b1980831691505092915050565b60006112b9838361128f565b9150826002028217905092915050565b6112d282610a19565b67ffffffffffffffff8111156112eb576112ea610c31565b5b6112f58254610eff565b61130082828561123c565b600060209050601f8311600181146113335760008415611321578287015190505b61132b85826112ad565b865550611393565b601f1984166113418661111d565b60005b8281101561136957848901518255600182019150602085019450602081019050611344565b868310156113865784890151611382601f89168261128f565b8355505b6001600288020188555050505b505050505050565b600060408201905081810360008301526113b58185610e2e565b905081810360208301526113c98184610e2e565b90509392505050565b7f547261636b696e6720494420616c726561647920657869737473000000000000600082015250565b6000611408601a83610e1d565b9150611413826113d2565b602082019050919050565b60006020820190508181036000830152611437816113fb565b9050919050565b7f50656e64696e6700000000000000000000000000000000000000000000000000600082015250565b6000611474600783610e1d565b915061147f8261143e565b602082019050919050565b600060608201905081810360008301526114a48185610e2e565b905081810360208301526114b88184610e2e565b905081810360408301526114cb81611467565b9050939250505056fea2646970667358221220e9e542ba7c7aeac1d4188d0ce942441979a14b84dba7af056428beff38c152ed64736f6c634300081c0033",
  "linkReferences": {},
  "deployedLinkReferences": {}
}