{
  "_format": "hh-sol-artifact-1",
  "contractName": "Tracking",
  "sourceName": "contracts/Tracking.sol",
  "abi": [
    {
      "anonymous": false,
      "inputs": [
        {
          "indexed": false,
          "internalType": "string",
          "name": "trackingNumber",
          "type": "string"
        },
        {
          "indexed": false,
          "internalType": "string",
          "name": "date",
          "type": "string"
        },
        {
          "indexed": false,
          "internalType": "string",
          "name": "status",
          "type": "string"
        },
        {
          "indexed": false,
          "internalType": "address",
          "name": "owner",
          "type": "address"
        }
      ],
      "name": "ShipmentAdded",
      "type": "event"
    },
    {
      "anonymous": false,
      "inputs": [
        {
          "indexed": false,
          "internalType": "string",
          "name": "trackingNumber",
          "type": "string"
        },
        {
          "indexed": false,
          "internalType": "string",
          "name": "newStatus",
          "type": "string"
        }
      ],
      "name": "ShipmentUpdated",
      "type": "event"
    },
    {
      "inputs": [
        {
          "internalType": "string",
          "name": "_trackingNumber",
          "type": "string"
        },
        {
          "internalType": "string",
          "name": "_date",
          "type": "string"
        }
      ],
      "name": "addShipment",
      "outputs": [],
      "stateMutability": "nonpayable",
      "type": "function"
    },
    {
      "inputs": [],
      "name": "getAllTrackingNumbers",
      "outputs": [
        {
          "internalType": "string[]",
          "name": "",
          "type": "string[]"
        }
      ],
      "stateMutability": "view",
      "type": "function"
    },
    {
      "inputs": [
        {
          "internalType": "string",
          "name": "_trackingNumber",
          "type": "string"
        }
      ],
      "name": "getShipment",
      "outputs": [
        {
          "internalType": "string",
          "name": "",
          "type": "string"
        },
        {
          "internalType": "string",
          "name": "",
          "type": "string"
        },
        {
          "internalType": "string",
          "name": "",
          "type": "string"
        },
        {
          "internalType": "address",
          "name": "",
          "type": "address"
        }
      ],
      "stateMutability": "view",
      "type": "function"
    },
    {
      "inputs": [
        {
          "internalType": "string",
          "name": "",
          "type": "string"
        }
      ],
      "name": "shipments",
      "outputs": [
        {
          "internalType": "string",
          "name": "trackingNumber",
          "type": "string"
        },
        {
          "internalType": "string",
          "name": "date",
          "type": "string"
        },
        {
          "internalType": "string",
          "name": "status",
          "type": "string"
        },
        {
          "internalType": "address",
          "name": "owner",
          "type": "address"
        }
      ],
      "stateMutability": "view",
      "type": "function"
    },
    {
      "inputs": [
        {
          "internalType": "uint256",
          "name": "",
          "type": "uint256"
        }
      ],
      "name": "trackingNumbers",
      "outputs": [
        {
          "internalType": "string",
          "name": "",
          "type": "string"
        }
      ],
      "stateMutability": "view",
      "type": "function"
    },
    {
      "inputs": [
        {
          "internalType": "string",
          "name": "_trackingNumber",
          "type": "string"
        },
        {
          "internalType": "string",
          "name": "_newStatus",
          "type": "string"
        }
      ],
      "name": "updateStatus",
      "outputs": [],
      "stateMutability": "nonpayable",
      "type": "function"
    }
  ],
  "bytecode": "0x6080604052348015600f57600080fd5b506115998061001f6000396000f3fe608060405234801561001057600080fd5b50600436106100625760003560e01c80631f0c6d5e14610067578063347047cc14610085578063534cc1b0146100a15780635ceaef5b146100d1578063d273263514610104578063da34f3d514610120575b600080fd5b61006f610153565b60405161007c9190610c7d565b60405180910390f35b61009f600480360381019061009a9190610de8565b61022c565b005b6100bb60048036038101906100b69190610e96565b6103b6565b6040516100c89190610f0d565b60405180910390f35b6100eb60048036038101906100e69190610f2f565b610462565b6040516100fb9493929190610fb9565b60405180910390f35b61011e60048036038101906101199190610de8565b610660565b005b61013a60048036038101906101359190610f2f565b610859565b60405161014a9493929190610fb9565b60405180910390f35b60606001805480602002602001604051908101604052809291908181526020016000905b8282101561022357838290600052602060002001805461019690611042565b80601f01602080910402602001604051908101604052809291908181526020018280546101c290611042565b801561020f5780601f106101e45761010080835404028352916020019161020f565b820191906000526020600020905b8154815290600101906020018083116101f257829003601f168201915b505050505081526020019060010190610177565b50505050905090565b6000808360405161023d91906110af565b9081526020016040518091039020600001805461025990611042565b90501161029b576040517f08c379a000000000000000000000000000000000000000000000000000000000815260040161029290611112565b60405180910390fd5b6000826040516102ab91906110af565b908152602001604051809103902060030160009054906101000a900473ffffffffffffffffffffffffffffffffffffffff1673ffffffffffffffffffffffffffffffffffffffff163373ffffffffffffffffffffffffffffffffffffffff161461034a576040517f08c379a00000000000000000000000000000000000000000000000000000000081526004016103419061117e565b60405180910390fd5b8060008360405161035b91906110af565b90815260200160405180910390206002019081610378919061134a565b507f42ead8a3d0f04c9edecbcf43bf847d38a5f294cd52e9a9f306405d0d1665e0a382826040516103aa92919061141c565b60405180910390a15050565b600181815481106103c657600080fd5b9060005260206000200160009150905080546103e190611042565b80601f016020809104026020016040519081016040528092919081815260200182805461040d90611042565b801561045a5780601f1061042f5761010080835404028352916020019161045a565b820191906000526020600020905b81548152906001019060200180831161043d57829003601f168201915b505050505081565b60008180516020810182018051848252602083016020850120818352809550505050505060009150905080600001805461049b90611042565b80601f01602080910402602001604051908101604052809291908181526020018280546104c790611042565b80156105145780601f106104e957610100808354040283529160200191610514565b820191906000526020600020905b8154815290600101906020018083116104f757829003601f168201915b50505050509080600101805461052990611042565b80601f016020809104026020016040519081016040528092919081815260200182805461055590611042565b80156105a25780601f10610577576101008083540402835291602001916105a2565b820191906000526020600020905b81548152906001019060200180831161058557829003601f168201915b5050505050908060020180546105b790611042565b80601f01602080910402602001604051908101604052809291908181526020018280546105e390611042565b80156106305780601f1061060557610100808354040283529160200191610630565b820191906000526020600020905b81548152906001019060200180831161061357829003601f168201915b5050505050908060030160009054906101000a900473ffffffffffffffffffffffffffffffffffffffff16905084565b6000808360405161067191906110af565b9081526020016040518091039020600001805461068d90611042565b9050146106cf576040517f08c379a00000000000000000000000000000000000000000000000000000000081526004016106c69061149f565b60405180910390fd5b60405180608001604052808381526020018281526020016040518060400160405280600781526020017f50656e64696e670000000000000000000000000000000000000000000000000081525081526020013373ffffffffffffffffffffffffffffffffffffffff1681525060008360405161074b91906110af565b9081526020016040518091039020600082015181600001908161076e919061134a565b506020820151816001019081610784919061134a565b50604082015181600201908161079a919061134a565b5060608201518160030160006101000a81548173ffffffffffffffffffffffffffffffffffffffff021916908373ffffffffffffffffffffffffffffffffffffffff160217905550905050600182908060018154018082558091505060019003906000526020600020016000909190919091509081610819919061134a565b507f03966a435a0f781724ea99107cdb6e85607548ed192efafb32568bd25fc72c4282823360405161084d9392919061150b565b60405180910390a15050565b606080606060008060008660405161087191906110af565b9081526020016040518091039020600001805461088d90611042565b9050116108cf576040517f08c379a00000000000000000000000000000000000000000000000000000000081526004016108c690611112565b60405180910390fd5b600080866040516108e091906110af565b908152602001604051809103902060405180608001604052908160008201805461090990611042565b80601f016020809104026020016040519081016040528092919081815260200182805461093590611042565b80156109825780601f1061095757610100808354040283529160200191610982565b820191906000526020600020905b81548152906001019060200180831161096557829003601f168201915b5050505050815260200160018201805461099b90611042565b80601f01602080910402602001604051908101604052809291908181526020018280546109c790611042565b8015610a145780601f106109e957610100808354040283529160200191610a14565b820191906000526020600020905b8154815290600101906020018083116109f757829003601f168201915b50505050508152602001600282018054610a2d90611042565b80601f0160208091040260200160405190810160405280929190818152602001828054610a5990611042565b8015610aa65780601f10610a7b57610100808354040283529160200191610aa6565b820191906000526020600020905b815481529060010190602001808311610a8957829003601f168201915b505050505081526020016003820160009054906101000a900473ffffffffffffffffffffffffffffffffffffffff1673ffffffffffffffffffffffffffffffffffffffff1673ffffffffffffffffffffffffffffffffffffffff1681525050905080600001518160200151826040015183606001519450945094509450509193509193565b600081519050919050565b600082825260208201905092915050565b6000819050602082019050919050565b600081519050919050565b600082825260208201905092915050565b60005b83811015610b91578082015181840152602081019050610b76565b60008484015250505050565b6000601f19601f8301169050919050565b6000610bb982610b57565b610bc38185610b62565b9350610bd3818560208601610b73565b610bdc81610b9d565b840191505092915050565b6000610bf38383610bae565b905092915050565b6000602082019050919050565b6000610c1382610b2b565b610c1d8185610b36565b935083602082028501610c2f85610b47565b8060005b85811015610c6b5784840389528151610c4c8582610be7565b9450610c5783610bfb565b925060208a01995050600181019050610c33565b50829750879550505050505092915050565b60006020820190508181036000830152610c978184610c08565b905092915050565b6000604051905090565b600080fd5b600080fd5b600080fd5b600080fd5b7f4e487b7100000000000000000000000000000000000000000000000000000000600052604160045260246000fd5b610cf582610b9d565b810181811067ffffffffffffffff82111715610d1457610d13610cbd565b5b80604052505050565b6000610d27610c9f565b9050610d338282610cec565b919050565b600067ffffffffffffffff821115610d5357610d52610cbd565b5b610d5c82610b9d565b9050602081019050919050565b82818337600083830152505050565b6000610d8b610d8684610d38565b610d1d565b905082815260208101848484011115610da757610da6610cb8565b5b610db2848285610d69565b509392505050565b600082601f830112610dcf57610dce610cb3565b5b8135610ddf848260208601610d78565b91505092915050565b60008060408385031215610dff57610dfe610ca9565b5b600083013567ffffffffffffffff811115610e1d57610e1c610cae565b5b610e2985828601610dba565b925050602083013567ffffffffffffffff811115610e4a57610e49610cae565b5b610e5685828601610dba565b9150509250929050565b6000819050919050565b610e7381610e60565b8114610e7e57600080fd5b50565b600081359050610e9081610e6a565b92915050565b600060208284031215610eac57610eab610ca9565b5b6000610eba84828501610e81565b91505092915050565b600082825260208201905092915050565b6000610edf82610b57565b610ee98185610ec3565b9350610ef9818560208601610b73565b610f0281610b9d565b840191505092915050565b60006020820190508181036000830152610f278184610ed4565b905092915050565b600060208284031215610f4557610f44610ca9565b5b600082013567ffffffffffffffff811115610f6357610f62610cae565b5b610f6f84828501610dba565b91505092915050565b600073ffffffffffffffffffffffffffffffffffffffff82169050919050565b6000610fa382610f78565b9050919050565b610fb381610f98565b82525050565b60006080820190508181036000830152610fd38187610ed4565b90508181036020830152610fe78186610ed4565b90508181036040830152610ffb8185610ed4565b905061100a6060830184610faa565b95945050505050565b7f4e487b7100000000000000000000000000000000000000000000000000000000600052602260045260246000fd5b6000600282049050600182168061105a57607f821691505b60208210810361106d5761106c611013565b5b50919050565b600081905092915050565b600061108982610b57565b6110938185611073565b93506110a3818560208601610b73565b80840191505092915050565b60006110bb828461107e565b915081905092915050565b7f536869706d656e74206e6f7420666f756e640000000000000000000000000000600082015250565b60006110fc601283610ec3565b9150611107826110c6565b602082019050919050565b6000602082019050818103600083015261112b816110ef565b9050919050565b7f4f6e6c79206f776e65722063616e207570646174652073746174757300000000600082015250565b6000611168601c83610ec3565b915061117382611132565b602082019050919050565b600060208201905081810360008301526111978161115b565b9050919050565b60008190508160005260206000209050919050565b60006020601f8301049050919050565b600082821b905092915050565b6000600883026112007fffffffffffffffffffffffffffffffffffffffffffffffffffffffffffffffff826111c3565b61120a86836111c3565b95508019841693508086168417925050509392505050565b6000819050919050565b600061124761124261123d84610e60565b611222565b610e60565b9050919050565b6000819050919050565b6112618361122c565b61127561126d8261124e565b8484546111d0565b825550505050565b600090565b61128a61127d565b611295818484611258565b505050565b5b818110156112b9576112ae600082611282565b60018101905061129b565b5050565b601f8211156112fe576112cf8161119e565b6112d8846111b3565b810160208510156112e7578190505b6112fb6112f3856111b3565b83018261129a565b50505b505050565b600082821c905092915050565b600061132160001984600802611303565b1980831691505092915050565b600061133a8383611310565b9150826002028217905092915050565b61135382610b57565b67ffffffffffffffff81111561136c5761136b610cbd565b5b6113768254611042565b6113818282856112bd565b600060209050601f8311600181146113b457600084156113a2578287015190505b6113ac858261132e565b865550611414565b601f1984166113c28661119e565b60005b828110156113ea578489015182556001820191506020850194506020810190506113c5565b868310156114075784890151611403601f891682611310565b8355505b6001600288020188555050505b505050505050565b600060408201905081810360008301526114368185610ed4565b9050818103602083015261144a8184610ed4565b90509392505050565b7f547261636b696e67206e756d62657220616c7265616479206578697374730000600082015250565b6000611489601e83610ec3565b915061149482611453565b602082019050919050565b600060208201905081810360008301526114b88161147c565b9050919050565b7f50656e64696e6700000000000000000000000000000000000000000000000000600082015250565b60006114f5600783610ec3565b9150611500826114bf565b602082019050919050565b600060808201905081810360008301526115258186610ed4565b905081810360208301526115398185610ed4565b9050818103604083015261154c816114e8565b905061155b6060830184610faa565b94935050505056fea2646970667358221220833b9a5124bc71f129d470dee4e939d7c98405427f50a72c0a70bd04047fed4164736f6c634300081c0033",
  "linkReferences": {},
  "deployedLinkReferences": {}
}