{
  "_format": "hh-sol-artifact-1",
  "contractName": "Tracking",
  "sourceName": "contracts/Tracking copy.sol",
  "abi": [
    {
      "anonymous": false,
      "inputs": [
        {
          "indexed": false,
          "internalType": "string",
          "name": "trackingId",
          "type": "string"
        },
        {
          "indexed": false,
          "internalType": "string",
          "name": "date",
          "type": "string"
        },
        {
          "indexed": false,
          "internalType": "string",
          "name": "status",
          "type": "string"
        },
        {
          "indexed": true,
          "internalType": "address",
          "name": "owner",
          "type": "address"
        }
      ],
      "name": "ShipmentAdded",
      "type": "event"
    },
    {
      "anonymous": false,
      "inputs": [
        {
          "indexed": false,
          "internalType": "string",
          "name": "trackingId",
          "type": "string"
        },
        {
          "indexed": false,
          "internalType": "string",
          "name": "newStatus",
          "type": "string"
        }
      ],
      "name": "ShipmentStatusUpdated",
      "type": "event"
    },
    {
      "inputs": [
        {
          "internalType": "string",
          "name": "_trackingId",
          "type": "string"
        },
        {
          "internalType": "string",
          "name": "_date",
          "type": "string"
        },
        {
          "internalType": "string",
          "name": "_status",
          "type": "string"
        }
      ],
      "name": "addShipment",
      "outputs": [],
      "stateMutability": "nonpayable",
      "type": "function"
    },
    {
      "inputs": [
        {
          "internalType": "string",
          "name": "_trackingId",
          "type": "string"
        }
      ],
      "name": "getShipment",
      "outputs": [
        {
          "internalType": "string",
          "name": "",
          "type": "string"
        },
        {
          "internalType": "string",
          "name": "",
          "type": "string"
        },
        {
          "internalType": "string",
          "name": "",
          "type": "string"
        },
        {
          "internalType": "address",
          "name": "",
          "type": "address"
        }
      ],
      "stateMutability": "view",
      "type": "function"
    },
    {
      "inputs": [
        {
          "internalType": "string",
          "name": "_trackingId",
          "type": "string"
        },
        {
          "internalType": "string",
          "name": "_newStatus",
          "type": "string"
        }
      ],
      "name": "updateShipmentStatus",
      "outputs": [],
      "stateMutability": "nonpayable",
      "type": "function"
    }
  ],
  "bytecode": "0x6080604052348015600f57600080fd5b50610fee8061001f6000396000f3fe608060405234801561001057600080fd5b50600436106100415760003560e01c80632c601172146100465780637fee6aa914610062578063da34f3d51461007e575b600080fd5b610060600480360381019061005b919061080e565b6100b1565b005b61007c600480360381019061007791906108b5565b610258565b005b6100986004803603810190610093919061092d565b6103e2565b6040516100a89493929190610a36565b60405180910390f35b600080846040516100c29190610acc565b908152602001604051809103902060000180546100de90610b12565b905014610120576040517f08c379a000000000000000000000000000000000000000000000000000000000815260040161011790610b8f565b60405180910390fd5b60405180608001604052808481526020018381526020018281526020013373ffffffffffffffffffffffffffffffffffffffff168152506000846040516101679190610acc565b9081526020016040518091039020600082015181600001908161018a9190610d65565b5060208201518160010190816101a09190610d65565b5060408201518160020190816101b69190610d65565b5060608201518160030160006101000a81548173ffffffffffffffffffffffffffffffffffffffff021916908373ffffffffffffffffffffffffffffffffffffffff1602179055509050503373ffffffffffffffffffffffffffffffffffffffff167f03966a435a0f781724ea99107cdb6e85607548ed192efafb32568bd25fc72c4284848460405161024b93929190610e37565b60405180910390a2505050565b600080836040516102699190610acc565b9081526020016040518091039020600001805461028590610b12565b9050036102c7576040517f08c379a00000000000000000000000000000000000000000000000000000000081526004016102be90610ecf565b60405180910390fd5b3373ffffffffffffffffffffffffffffffffffffffff166000836040516102ee9190610acc565b908152602001604051809103902060030160009054906101000a900473ffffffffffffffffffffffffffffffffffffffff1673ffffffffffffffffffffffffffffffffffffffff1614610376576040517f08c379a000000000000000000000000000000000000000000000000000000000815260040161036d90610f61565b60405180910390fd5b806000836040516103879190610acc565b908152602001604051809103902060020190816103a49190610d65565b507f34560c1e26a6b114f694931e8e4d11a0a5f68ed24c633380f95fd1baf235643982826040516103d6929190610f81565b60405180910390a15050565b60608060606000806000866040516103fa9190610acc565b9081526020016040518091039020600001805461041690610b12565b905003610458576040517f08c379a000000000000000000000000000000000000000000000000000000000815260040161044f90610ecf565b60405180910390fd5b600080866040516104699190610acc565b908152602001604051809103902060405180608001604052908160008201805461049290610b12565b80601f01602080910402602001604051908101604052809291908181526020018280546104be90610b12565b801561050b5780601f106104e05761010080835404028352916020019161050b565b820191906000526020600020905b8154815290600101906020018083116104ee57829003601f168201915b5050505050815260200160018201805461052490610b12565b80601f016020809104026020016040519081016040528092919081815260200182805461055090610b12565b801561059d5780601f106105725761010080835404028352916020019161059d565b820191906000526020600020905b81548152906001019060200180831161058057829003601f168201915b505050505081526020016002820180546105b690610b12565b80601f01602080910402602001604051908101604052809291908181526020018280546105e290610b12565b801561062f5780601f106106045761010080835404028352916020019161062f565b820191906000526020600020905b81548152906001019060200180831161061257829003601f168201915b505050505081526020016003820160009054906101000a900473ffffffffffffffffffffffffffffffffffffffff1673ffffffffffffffffffffffffffffffffffffffff1673ffffffffffffffffffffffffffffffffffffffff1681525050905080600001518160200151826040015183606001519450945094509450509193509193565b6000604051905090565b600080fd5b600080fd5b600080fd5b600080fd5b6000601f19601f8301169050919050565b7f4e487b7100000000000000000000000000000000000000000000000000000000600052604160045260246000fd5b61071b826106d2565b810181811067ffffffffffffffff8211171561073a576107396106e3565b5b80604052505050565b600061074d6106b4565b90506107598282610712565b919050565b600067ffffffffffffffff821115610779576107786106e3565b5b610782826106d2565b9050602081019050919050565b82818337600083830152505050565b60006107b16107ac8461075e565b610743565b9050828152602081018484840111156107cd576107cc6106cd565b5b6107d884828561078f565b509392505050565b600082601f8301126107f5576107f46106c8565b5b813561080584826020860161079e565b91505092915050565b600080600060608486031215610827576108266106be565b5b600084013567ffffffffffffffff811115610845576108446106c3565b5b610851868287016107e0565b935050602084013567ffffffffffffffff811115610872576108716106c3565b5b61087e868287016107e0565b925050604084013567ffffffffffffffff81111561089f5761089e6106c3565b5b6108ab868287016107e0565b9150509250925092565b600080604083850312156108cc576108cb6106be565b5b600083013567ffffffffffffffff8111156108ea576108e96106c3565b5b6108f6858286016107e0565b925050602083013567ffffffffffffffff811115610917576109166106c3565b5b610923858286016107e0565b9150509250929050565b600060208284031215610943576109426106be565b5b600082013567ffffffffffffffff811115610961576109606106c3565b5b61096d848285016107e0565b91505092915050565b600081519050919050565b600082825260208201905092915050565b60005b838110156109b0578082015181840152602081019050610995565b60008484015250505050565b60006109c782610976565b6109d18185610981565b93506109e1818560208601610992565b6109ea816106d2565b840191505092915050565b600073ffffffffffffffffffffffffffffffffffffffff82169050919050565b6000610a20826109f5565b9050919050565b610a3081610a15565b82525050565b60006080820190508181036000830152610a5081876109bc565b90508181036020830152610a6481866109bc565b90508181036040830152610a7881856109bc565b9050610a876060830184610a27565b95945050505050565b600081905092915050565b6000610aa682610976565b610ab08185610a90565b9350610ac0818560208601610992565b80840191505092915050565b6000610ad88284610a9b565b915081905092915050565b7f4e487b7100000000000000000000000000000000000000000000000000000000600052602260045260246000fd5b60006002820490506001821680610b2a57607f821691505b602082108103610b3d57610b3c610ae3565b5b50919050565b7f547261636b696e6720494420616c726561647920657869737473000000000000600082015250565b6000610b79601a83610981565b9150610b8482610b43565b602082019050919050565b60006020820190508181036000830152610ba881610b6c565b9050919050565b60008190508160005260206000209050919050565b60006020601f8301049050919050565b600082821b905092915050565b600060088302610c117fffffffffffffffffffffffffffffffffffffffffffffffffffffffffffffffff82610bd4565b610c1b8683610bd4565b95508019841693508086168417925050509392505050565b6000819050919050565b6000819050919050565b6000610c62610c5d610c5884610c33565b610c3d565b610c33565b9050919050565b6000819050919050565b610c7c83610c47565b610c90610c8882610c69565b848454610be1565b825550505050565b600090565b610ca5610c98565b610cb0818484610c73565b505050565b5b81811015610cd457610cc9600082610c9d565b600181019050610cb6565b5050565b601f821115610d1957610cea81610baf565b610cf384610bc4565b81016020851015610d02578190505b610d16610d0e85610bc4565b830182610cb5565b50505b505050565b600082821c905092915050565b6000610d3c60001984600802610d1e565b1980831691505092915050565b6000610d558383610d2b565b9150826002028217905092915050565b610d6e82610976565b67ffffffffffffffff811115610d8757610d866106e3565b5b610d918254610b12565b610d9c828285610cd8565b600060209050601f831160018114610dcf5760008415610dbd578287015190505b610dc78582610d49565b865550610e2f565b601f198416610ddd86610baf565b60005b82811015610e0557848901518255600182019150602085019450602081019050610de0565b86831015610e225784890151610e1e601f891682610d2b565b8355505b6001600288020188555050505b505050505050565b60006060820190508181036000830152610e5181866109bc565b90508181036020830152610e6581856109bc565b90508181036040830152610e7981846109bc565b9050949350505050565b7f547261636b696e6720494420646f6573206e6f74206578697374000000000000600082015250565b6000610eb9601a83610981565b9150610ec482610e83565b602082019050919050565b60006020820190508181036000830152610ee881610eac565b9050919050565b7f4f6e6c7920746865206f776e65722063616e207570646174652074686520737460008201527f6174757300000000000000000000000000000000000000000000000000000000602082015250565b6000610f4b602483610981565b9150610f5682610eef565b604082019050919050565b60006020820190508181036000830152610f7a81610f3e565b9050919050565b60006040820190508181036000830152610f9b81856109bc565b90508181036020830152610faf81846109bc565b9050939250505056fea26469706673582212208c24feb5f0a55a681cd708176ea0455e5c9482098c7c0ad673591e55c07722c064736f6c634300081c0033",
  "linkReferences": {},
  "deployedLinkReferences": {}
}